:020000040800F2
:10000000C04D00207D020008274A00082536000860
:10001000FB480008232000089F680008000000003B
:10002000000000000000000000000000AB550008C8
:10003000FF22000800000000455300081D59000879
:10004000970200089702000897020008970200082C
:100050009702000897020008452300085924000869
:1000600081240008A9240008D124000829200008C0
:10007000452000086120000881200008A120000818
:10008000C1200008E120000897020008970200083C
:10009000970200089702000897020008F924000858
:1000A00097020008970200089702000897020008CC
:1000B000D55B0008015C0008315C0008970200086D
:1000C00097020008970200089702000897020008AC
:1000D0009702000835660008656600089566000806
:1000E0006D230008970200089702000800F002F84C
:1000F00000F0B4F80AA090E8000C82448344AAF10E
:100100000107DA4501D100F0A9F8AFF2090EBAE80B
:100110000F0013F0010F18BFFB1A43F0010318473B
:10012000F0FF0000100001000A444FF0000C10F82E
:10013000013B13F0070408BF10F8014B1D1108BF65
:1001400010F8015B641E05D010F8016B641E01F805
:10015000016BF9D113F0080F1EBF10F8014BAD1C55
:100160000C1B09D16D1E58BF01F801CBFAD505E073
:1001700014F8016B01F8016B6D1EF9D59142D6D3CD
:10018000704700000023002400250026103A28BFF5
:1001900078C1FBD8520728BF30C148BF0B607047F9
:1001A0006E2900F04983702900F08B8466290CF0D9
:1001B000468165290CF0438167290CF04081612953
:1001C000AFF3008003681B0A28BF41F08001692952
:1001D00000F0F682642900F0F382752900F0F082C5
:1001E0006F2900F01884782900F05784E92900F07D
:1001F000B383E42900F0B083F52900F0AD83EF2943
:1002000000F01584F82900F056840368DB0928BF44
:1002100041F08001632901F01A80732901F01F80E9
:10022000E32901F02A80F32901F02F800020704794
:100230001FB59DE8030000F08DF901F0A7F8040058
:10024000002000210BF04AF8401C606000200021D3
:100250000BF02EF8E0601FBD10B510BD01F068F87E
:100260001146FFF7E5FF09F08DFE01F045F903B4F3
:10027000FFF7F2FF03BC01F075F900000948804761
:1002800009480047FEE7FEE7FEE7FEE7FEE7FEE778
:10029000FEE7FEE7FEE7FEE704480549054A064B90
:1002A0007047000035590008ED000008C008002024
:1002B000C04D0020C04B0020C04B002070B506464A
:1002C00000F02CF9056806F10B0020F00704B44299
:1002D0009CBF002070BD2B466A68BAB11068A0426E
:1002E00010D304F1080188423CBF5068586007D31E
:1002F0005168101941601168091B01605860146051
:10030000101D70BD13465268002AE7D121462846C9
:1003100000F00CF90028DED170BD10B54C1084EA55
:10032000530404D54042C1F1000138BF491E1B42AD
:1003300004D55242C3F1000338BF5B1E00F067F9D9
:1003400014F0804F04D04042C1F1000138BF491E73
:1003500014F0004F04D05242C3F1000338BF5B1EBB
:1003600010BD00001CB50C46064B7B44694600904E
:10037000204600F07AFA04460020694600F088FA28
:1003800020461CBD2305000040EA010310B59B0771
:100390000FD1042A0DD310C808C9121F9C42F8D0EF
:1003A00020BA19BA884201D9012010BD4FF0FF30A0
:1003B00010BD1AB1D30703D0521C07E0002010BDB6
:1003C00010F8013B11F8014B1B1B07D110F8013B42
:1003D00011F8014B1B1B01D1921EF1D1184610BD23
:1003E00010B5431C02E010F8011B71B18107FAD16E
:1003F0004FF0013202C88C1A8C4314EAC211F9D0B2
:10040000C01A0A0603D0C01E10BDC01A10BD0A04CF
:1004100001D0801E10BD0902FCD0401E10BD10B5D9
:10042000203AC0F00B80B1E81850203AA0E81850EC
:10043000B1E81850A0E81850BFF4F5AF5FEA027CAD
:1004400024BFB1E81850A0E8185044BF18C918C01C
:10045000BDE810405FEA827C24BF51F8043B40F8BD
:10046000043B08BF7047D20728BF31F8023B48BFA2
:1004700011F8012B28BF20F8023B48BF00F8012BE0
:10048000704702F0FF0343EA032242EA024200F00F
:10049000E9BB00004FF0013C50F8042B51F8043B3D
:1004A0009A4221D1A2EB0C03934313EACC1317D148
:1004B00050F8042B51F8043B9A4215D1A2EB0C03DF
:1004C000934313EACC130BD150F8042B51F8043B9F
:1004D0009A4209D1A2EB0C03934313EACC13DBD06D
:1004E0004FF00000704700BFD01A01BAB1FA81F195
:1004F00001F0180122FA01F0CB40C1F12001DBB27A
:10050000C0B2C01A2CFA01F3D11A914311EAC311F7
:10051000E6D1704770477047704700000048704749
:1005200068080020704770477047704738B5044628
:100530000A4600206946AFF30080002808BF38BD96
:1005400002460099204600F0B1FB012038BD012091
:1005500000F0BFBEF8B5AFF30080054600200C46A2
:10056000102000BF0646A819A0420DD932466946A0
:100570000020AFF30080070008BF00F0AAFE00983B
:10058000A04218BF0546C419FFF7C8FF056007461B
:10059000F01D20F007004619284600F00AF8B44282
:1005A00008BFF8BDA21B31463868BDE8F84000F02E
:1005B0007DBB00210160C0E9011070471020704729
:1005C00070B50446051FFFF7A9FF0068002C14BF93
:1005D000446870BD002C18BFAC423CBF2046646824
:1005E000F8D301680A18AA4218BF456003D12A68E7
:1005F00005461144016028684119A1421CBF6C6086
:1006000070BD6168696021680844286070BD53EA64
:10061000020C00F069802DE9F04B4FF00006002B32
:100620001FBFB3FA83F503FA05F424FA05F65E401A
:1006300012BF1643B2FA82F502FA05F4C5F120059D
:100640001EBF22FA05FC44EA0C04203556EA044C8D
:100650004FEA144418BF641C4FF000084FF0000923
:10066000904271EB030C39D3002919BFB1FA81F71D
:1006700001FA07F6B0FA80F700FA07F6C7F120078B
:100680001EBF20FA07FC46EA0C062037B6FBF4FC36
:10069000A7EB0507103F07F01F0BCBF120060CFA64
:1006A0000BFB2CFA06F644BFB3460026202FA4BF4E
:1006B0005E464FF0000B5BEA060C08BF4FF0010BE3
:1006C00019EB0B09ABFB027C48EB0608C01B06FBD1
:1006D00002CC0BFB03CC71EB0C01C1E70B460246CD
:1006E00041464846BDE8F08B13B54FF000004FF08F
:1006F0000001AFF30080BDE81C40704770B50446B0
:1007000085690068C10601D5302600E02026C007B3
:1007100007D070BDD4E9012130469047206A401CC3
:1007200020626D1EF6D570BD70B5044685690078EF
:10073000C00707D170BDD4E9012120209047206A6D
:10074000401C20626D1EF6D570BD09684A0501D5B2
:1007500040B27047C905FCD500B2704709684A0528
:1007600001D5C0B27047C905FCD580B2704770B5DD
:100770000C460546012A05D02878800600D5EA698E
:10078000002302E0012305E05B1C934202D2E05CFF
:100790000028F9D1A869E618C01AA861286A184487
:1007A00028622846FFF7AAFF04E0D5E9012114F8E2
:1007B000010B9047B442F8D32846FFF7B5FF70BD50
:1007C0002DE9F0410646002410687529314616A52A
:1007D00010D0FFF7BAFF002802DA404213A507E065
:1007E00031688A0701D512A502E0490704D511A591
:1007F000012401E0FFF7B2FF00210A2206F12407DD
:1008000009E0B0FBF2FCB0FBF2F302FB1C0030305D
:1008100078541846491C0028F3D123462A4630460E
:10082000BDE8F04100F0A1BA000000002D0000007A
:100830002B0000002000000011680268006A5305C8
:1008400001D508700AE0D30501D5088006E013063B
:1008500003D5C217C1E9000200E00860012070471B
:1008600001694A1C02610878704700B58FB0CDE974
:1008700001310021059105497944CDE90310114664
:10088000684600F029F90FB000BD0000E5FFFFFF4A
:100890000A6802F8010B0A60704700002DE9FF5F4B
:1008A00015468A460446DFF8AC80F8440027D8E9AC
:1008B00000103E46CDE9001010E03AF816106A46E6
:1008C00002A800F0E6FC411C07D02178890603D578
:1008D000E269391891420DD80744761C20788006C9
:1008E00002D5E069B84205DDAE42E6DB3AF8160013
:1008F0000028E2D1A069C01BA0612046FFF7FEFEE0
:10090000D8E90010CDE90010002017E03AF81810DF
:100910006A4602A800F0BDFCB0F1FF3F81460BD053
:1009200000250DF1080B05E0D4E901211BF80500B5
:1009300090476D1C4D45F7D308F10100B042804649
:10094000E4DB206A384420622046FFF7EDFEBDE874
:10095000FF9F00008AF700002DE9F0418046D21D7C
:1009600022F007020025D2E90002F52915A614D0CD
:10097000011E72F1000106DA0023D0EB030063EBE5
:10098000020211A608E0D8F800108B0701D50FA6C7
:1009900002E0490701D50EA601251146002408F101
:1009A000240704E000F09CF930323A55641C50EA08
:1009B0000102F7D12B46324621464046BDE8F041C0
:1009C00000F0D3B9000000002D0000002B00000053
:1009D0002000000030B4002100F1240408E002F0FF
:1009E0000705D208303542EA4372DB086554491CDA
:1009F00052EA0305F3D10468002310A2250707D5A6
:100A0000A40600D421B1C46901230DA2641EC461EF
:100A100030BC00F0AAB910B5044621461068FFF7B3
:100A20009DFE02462046BDE810400023D2E7D21DBD
:100A300022F00701D1E90023CCE70000000000000C
:100A400030000000F0B40D460188090502D5214CA4
:100A50007C4402E01F4C7C440E34002100F124064B
:100A600008E002F00F071209E75D42EA03721B0972
:100A70007754491C52EA0307F3D102780023120786
:100A800004D5702D06D009B1022311342246F0BCE2
:100A900000F06BB901231034F8E770B504460D4639
:100AA00021461068FFF75AFE024629462046BDE857
:100AB00070400023C6E7D21D22F00703D3E90023CC
:100AC000C0E70368126843F0200303600823C36192
:100AD0000023B7E7ECF500002DE9F05F89460446F6
:100AE0004FF0000ADFF874B1FB44C0F820A02046A4
:100AF000E1688847002874D0252806D0D4E9012170
:100B00009047206A401C2062F1E700265F4620469D
:100B1000E16888472028054607DB312D05D2781982
:100B200010F8200C08B10643F1E7B00701D526F014
:100B30000406C4F81CA00027C4F818A02A2D09D068
:100B4000284605F0C2FE38B304EB8708303DC8F8EC
:100B5000185019E059F8041B204604EB87029161F4
:100B6000E1688847012F054618D1E069002820DA9E
:100B700026F020061DE0D8F8180000EB800005EBF9
:100B800040003038C8F818002046E168884705461C
:100B900005F09BFE0028EED1012F0AD02E2D08D1A2
:100BA0002046E16888477F1C0546022F46F0200654
:100BB000C4DBA069002803DA404246F00106A061C8
:100BC000F00701D026F010066C2D0BD0682D09D04F
:100BD0004C2D39D06A2D35D0742D35D07A2D33D0A7
:100BE00016E038E0E1682F4620468847B8420546BF
:100BF00009D16C2F26D04FF48060E168064320466F
:100C00008847054604E06C2F1AD04FF480700643E5
:100C10000DB3A5F14100192802D8203546F400662D
:100C20004A462946204626604E46FFF7B9FA80B16B
:100C300001280BD0F61D26F0070000F1080956E741
:100C40004020E4E78020D8E70020D6E706F1040939
:100C50004DE7284652E7206ABDE8F09F7CF500008A
:100C60004FF000020429C0F0128010F0030C00F0D5
:100C70003983CCF1040CBCF1020F18BF00F8012B32
:100C8000A8BF20F8022BA1EB0C0100F02BBB5FEA00
:100C9000C17C24BF00F8012B00F8012B48BF00F8ED
:100CA000012B7047004870476008002003464068E9
:100CB0008C46002818BF88423CBF03464068F8D3E2
:100CC00018681844884207D00CF1030020F0070090
:100CD000001D411A521A0146081D0A60FFF770BC38
:100CE00030B5B0F10A024FEA900E71F100034EEAFE
:100CF000817EB0EB0E0061EB91014FEA101E4EEACF
:100D0000017E10EB0E0041EB11114FEA102E4EEA5E
:100D1000016E10EB0E0041EB11214FEA104E4EEA2E
:100D2000014E10EB0E0041EB1141401841F1000162
:100D30004FEAD00040EA41704FEAD10110EB800544
:100D40004FEA810444EA907444EB01046D1944EBCA
:100D50000404521BA3414FF0000348BF0A3200D5E0
:100D600030BD401C41F1000130BD2DE9F0470D467A
:100D700099469246044600F124080168880604D585
:100D8000E06921F01001216000E00120A84201DDAE
:100D9000471B00E00027A1697A1902EB0900081A35
:100DA000A0612078C00602D42046FFF7A7FC0026E9
:100DB00008E0D4E901211AF806009047206A401C97
:100DC000761C20624E45F4DB2078C0060AD520460A
:100DD000FFF794FC06E0D4E9012130209047206A17
:100DE000401C2062381EA7F10107F4DC07E0D4E9BB
:100DF000012118F805009047206A401C2062281E37
:100E0000A5F10105F3DC2046FFF78EFC20780006F3
:100E100002D50220BDE8F0870120FBE770472DE9ED
:100E2000FF4F0C461E464FF0FF378BB0D2E9000152
:100E3000DDF860800A908A46C1F30A5505B93D463F
:100E4000002108464FF00000BAF1000F00F4400006
:100E500005DA00EB80004FF4400101EA50004FEA50
:100E60009059B9F1010F00DDB9460A9850EA4A00DD
:100E70000ED044F61050A5F2FF3545432F14B8F1BB
:100E8000000F1ED07542291E1EDDC9F100021CE0B4
:100E9000B8F1010F4FF0000001D0302103E0F24320
:100EA00005E02154401CB042FBDB3046002200210B
:100EB00021540B99C1F80880C1E900200FB0BDE8AA
:100EC000F08FBD1B6D1CDEE74A4600DA694206A8BA
:100ED00000F0A0FA06AB93E8070003AB83E8070035
:100EE00050460A9900F064FB8DE80700A0F5005019
:100EF0001F3800900398002D0ADD42F21F014A4678
:100F00000844002303A90390684600F0CDFD09E0E2
:100F1000A0F500504A461F38002303A903906846F5
:100F200000F0D7FD8DE807000004000C03D04FF05F
:100F3000FF30410800E01046B8F1000F03D0002256
:100F4000009215461EE0751E05D4FFF7C9FE30322B
:100F500062556D1EF9D5B3460122084302D0002226
:100F60007F1C04E02078302801D100227F1E002A57
:100F7000099784D01DE0112D07DAFFF7B1FE30325A
:100F800062556D1C50EA0102F5D1084302D0009869
:100F9000C8B10EE00021681E05E0235C625C63546A
:100FA0002254401E491C8142F7DBAB46A81B401E61
:100FB0000990002004F80B000B98099AC0F80880EB
:100FC000C0E9002B7AE711264FF0000857E72DE91A
:100FD000F04F88460446D21D22F0070191B0D1E9B6
:100FE0000001CDE90A0105F05CFC02460B98C00F38
:100FF00001D02D2007E02068810701D52B2002E0D9
:10100000202101EAC000032A099001D0072A05DB4C
:1010100003464146204600F0BDF90BE120788006EA
:1010200001D5E06900E00620B8F1650F814606D0E1
:10103000B8F1660F18D0B8F1670F70D131E0002019
:10104000B9F1110F009001DB112301E009F1010357
:101050000AAA01A90CA8FFF7E2FEDDE90C70002640
:1010600009F10105834647E001204B4600904FF00F
:1010700000470AAA01A90CA8FFF7D1FEDDE90DB0CF
:101080000C995D46002610B909F101000D18B9EB65
:10109000050003D4C0F1FF3609F10105A5EB0900F5
:1010A0002BE0B9F1010F01DA4FF001090020B9F18D
:1010B000110F0090484601DD112300E003460AAA03
:1010C00001A90CA8FFF7ABFEDDE90C704D46002628
:1010D0008346207800070AD4AB4500DA5D4601A8B4
:1010E000012D04DD411911F8011C302907D04F45AD
:1010F00002DA17F1040F04DA012082460FE06D1EB8
:10110000EEE7002F02DCED1B3E4403E0781CA84212
:1011100000DD7D1CB81B00F1010A4FF0004720786C
:10112000000703D4AA4501DB4FF0FF3A0021B7F1D5
:10113000004F0DF143088DF8431024D002202B23DB
:10114000002F01DA7F422D230A21021EA0F10100A7
:1011500000DC5FB197FBF1FC97FBF1F201FB1C7C1B
:1011600017460CF1300C08F801CDEEE7A8F10100AC
:1011700003702188090501D5452100E06521A0F112
:10118000010800F8011C09980FA9A1EB0807FF1D31
:1011900000B10120411901EBEA70A1693844081A35
:1011A000401EA0612078C00602D42046FFF7A6FAB0
:1011B000099828B1D4E901219047206A401C206297
:1011C0002078C00622D52046FFF798FA1EE0002EB0
:1011D00004DBB34502DD01A8805D00E03020D4E9E6
:1011E00001219047206A401C2062761CAAF1010070
:1011F0005FEA000A0AD100F0C9F8C0680168405CE3
:10120000D4E901219047206A401C2062281EA5F1E4
:101210000105DCDC07E0D4E9012118F8010B904757
:10122000206A401C2062381EA7F10107F3DC20462B
:10123000FFF77AFA032011B041E610B5436913B104
:10124000AFF3008001E0FFF792FA012010BD1278A1
:1012500000F124010A7000224A700122EDE71168B2
:101260004FF0FF32E9E710B5436913B1AFF30080E7
:1012700001E0FFF713FB012010BD128800F12401EB
:1012800082840022C2840122EDE711684FF0FF3210
:10129000E9E770B516460C46054600F06FF803689E
:1012A00093F80101012806D0FF2C0FD8185D68B112
:1012B00001202C7070BDD3F807013246214603F29D
:1012C000071303442846BDE8704018474FF0FF302D
:1012D00070BD10B500F01EF9BDE8104000F015B962
:1012E0004FF0000200B5134694469646203922BFBF
:1012F000A0E80C50A0E80C50B1F12001BFF4F7AF0A
:10130000090728BFA0E80C5048BF0CC05DF804EBEB
:10131000890028BF40F8042B08BF704748BF20F859
:10132000022B11F0804F18BF00F8012B7047704757
:101330007546FFF7B7FCAE4605006946534620F0F8
:101340000700854618B020B5FEF7A6FFBDE820408F
:101350004FF000064FF000074FF000084FF0000B71
:1013600021F00701AC46ACE8C009ACE8C009ACE824
:10137000C009ACE8C0098D467047000010B500F008
:1013800005F8001D10BD00BF559F000000487047C4
:10139000800800202DE9F0411F460446032601681D
:1013A000072A01F4006004DB08B116A505E016A5C4
:1013B00003E008B115A500E015A521F0100020609C
:1013C000A069C01EA0610FB1401EA0612046FFF7BA
:1013D00095F94FB1D4E9012138469047206A401C65
:1013E0002062C01C206206E0206AFAE7D4E90121ED
:1013F00015F8010B9047761EF8D22046FFF794F9B6
:10140000BDE8F0814E414E006E616E00494E4600CF
:10141000696E66002DE9F047814616468AB0354868
:1014200078440DC88DE80D0032487844801C03AC28
:101430000DC884E80D0041F69B300844372190FB2D
:10144000F1F290FBF1F5A5F1800501FB12041B3CC4
:1014500002D56442012000E00020DFF898A0804619
:101460000027FA44AAF1BE0A0EE0E0070AD032468D
:10147000684607EB470101230AEB810100F029FBD5
:101480008DE8070064107F1C002CEED1194F7F44BB
:10149000AE3F19E0E80715D007EB04100DF1180A6C
:1014A00090E80E008AE80E00C068F04201D1981959
:1014B00008903246012306A903A800F00AFB03ABFB
:1014C00083E807006D10641C002DE3D14FF0010389
:1014D00032466946B8F1000F03A802D000F0E4FAE2
:1014E00001E000F0F6FAC9E90001C9F808200AB0E5
:1014F000BDE8F087D4EC000010B50446AFF30080DF
:101500002046BDE81040FEF7B2BE002801D000F032
:1015100029B8704710B5012805D0002103A000F0BC
:1015200027F8012010BD09A1F8E7000053494752F0
:10153000544D454D3A204F7574206F6620686561A3
:1015400070206D656D6F7279000000003A2048656B
:101550006170206D656D6F727920636F7272757046
:101560007465640001491820ABBEFEE72600020046
:1015700070B505460C460A2000E06D1C00F011F81D
:1015800035B128780028F8D102E0641C00F009F891
:1015900014B120780028F8D1BDE870400A20AFF3DC
:1015A000008008B569468DF800000320ABBE08BD79
:1015B0005FEA400C08BF91F0000F4FEA8C234FEA1E
:1015C000C12243EA51514FEA1C5018BF00F5F040C8
:1015D0004FEA300018BF41F000415FEA6C5C00F058
:1015E0002980BCF1FF3F08BF40F080407047130CDA
:1015F00006BF12044FF0100C4FF0000C130E04BF86
:1016000012020CF1080C130F04BF12010CF1040CB0
:10161000930F04BF92000CF1020CD30F04BF5200D1
:101620000CF1010C11464FF00002A0F11F00A0EBDD
:101630000C00704711F0004F08BF704731F00041B7
:101640003FF4D5AF0B0C06BF09044FF0100C4FF060
:10165000000C0B0E04BF09020CF1080C0B0F04BFA9
:1016600009010CF1040C8B0F04BF89000CF1020C72
:10167000CB0F04BF49000CF1010CCCF12003A0EB0F
:101680000C0022FA03F302FA0CF241EA030100F122
:101690000100704720F07F4C80EA030023F07F4771
:1016A000ACEB070303F57C5300F0004003F1FF03AC
:1016B0002DE980494FEA154B09B44FEA144325EA56
:1016C0000B4E24EA03480FF2042606EB13274908C1
:1016D0003E785FEA320203FB0667C7F5000707FBA7
:1016E00006F64FEA54374FEAD64606F1020607FBE4
:1016F000066CCCF1005C4FEA1C472CEA074C07FB58
:1017000006F40CFB06F504EB15464FEA961634BFBB
:1017100000204FF000404FEAD13706FB07FC4FEAAC
:101720001C4C0CFB0BF7D21B03FB0CF761EB070106
:101730000CFB0EF7B0EB074072EB17420CFB08F7FF
:1017400034BFA2EB0742B2EB074261EB17414FEA0D
:101750000C444FEA910706FB07FC4FEA1C4C0CFBBC
:101760000BF7B0EBC74072EB573203FB0CF734BFFB
:10177000A2EBC742B2EBC74261EB57310CFB0EF74D
:10178000B0EBC70072EB57720CFB08F734BFA2EB4B
:10179000C702B2EBC70261EB5771039F4FEA816149
:1017A00041EA921104EBCC044FEAD1374FEA82624E
:1017B00006FB07FC42EA90124FEA80604FEA1C4C9D
:1017C0000CFB0BF7D21B03FB0CF761EB07010CFBC7
:1017D0000EF7B0EB074072EB17420CFB08F734BF73
:1017E000A2EB0742B2EB074261EB17414FEA8C557F
:1017F0004FEA910704EB9C2406FB07FC4FEA1C4CC4
:101800000CFB0BF7B0EBC74072EB573203FB0CF746
:1018100034BFA2EBC742B2EBC74261EB57310CFBBE
:101820000EF7B0EBC70072EB57720CFB08F734BF32
:10183000A2EBC702B2EBC70261EB577115EB4C2567
:101840004FEA816141EA92114FEA82624FEAD13751
:1018500042EA901206FB07FC44F100044FEA806064
:101860004FEA1C4C0CFB0BF7D21B03FB0CF761EB94
:1018700007010CFB0EF7B0EB074072EB17420CFBB5
:1018800008F734BFA2EB0742B2EB074261EB174106
:1018900015EB1C154FEA813141EA92414FEA823241
:1018A00042EA90424FEA80304FEA0C7644F100045D
:1018B00048EA03434EEA0B484FF0000EB2EB080C27
:1018C00071EB030724BF624639464EEB0E0E4FF014
:1018D000000B0018524149414BEB0B0BB2EB080CCB
:1018E00071EB03077BF1000B24BF624639464EEBD8
:1018F0000E0E4FF0000B0018524149414BEB0B0B01
:10190000B2EB080C71EB03077BF1000B24BF6246BE
:1019100039464EEB0E0E51EA020718BF46F001069B
:1019200016EB0E7655F1000254F1000103D5BDE827
:101930008901BDE80088BDE88901BDE80048B61905
:10194000524141EB0101A3F10103704780807F7E8A
:101950007D7C7B7A79787776767574737271717025
:101960006F6E6E6D6C6C6B6A6A69686867666665D7
:101970006464636362616160605F5F5E5E5D5D5C65
:101980005C5B5B5A5A5959585857575656555555D6
:101990005454535352525251515050504F4F4F4E36
:1019A0004E4D4D4D4C4C4C4B4B4B4A4A4A49494984
:1019B00048484847474747464646454545444444C6
:1019C000444343434342424242414141002B9C46EF
:1019D00030D477002BD01CB54FEA370703B44FF053
:1019E00010004FF01001BAF1000F06D0BCF1000F4B
:1019F000DCBF40F0080040F008014FF000000FBCD1
:101A0000BDE810400BF1010BBBF1010F08BF5FEA0D
:101A1000170722BF12F1010211F101014FF000413D
:101A200043F1000300F0004043EA00007047F9D39F
:101A30005708D0E746EA064613F1400F4FEA16462C
:101A40001FDD13F1200FDFBF16430A4600212033AC
:101A50005B42BED0C3F1200746EA064602FA07F70A
:101A60004FEA164646EA0706C3F1200722FA03F2B8
:101A700001FA07F721FA03F14FF0000342EA0702E7
:101A8000A7E746EA020646EA06464FEA164646EA4F
:101A90000106BCBF46EA0646360C4FF000034FF085
:101AA00000024FF0000194E72DE9804C9A469346DE
:101AB00070B491E8380007C831EA400C48BF34EAF6
:101AC000430C03D5FFF7E6FDFFF780FFF0BCBDE850
:101AD000008C2DE9804C9A46934670B491E838000A
:101AE00007C810F0804F08BF13F0804F03D100F0FB
:101AF00005F8FFF76BFFF0BCBDE8008C20F07F47D6
:101B000080EA030023F07F4C07EB0C03A3F57C5322
:101B100000F00040A3F1FE0392F0000F00F0B3804C
:101B200095F0000F00F077802DE901494FEA114050
:101B30004FEA144621EA004800FB06FC24EA064767
:101B400008FB06F607FB08F800FB07F718EB06484A
:101B50004CEB164C4FEA124B18EB07484FEA154670
:101B60004CEB174022EA0B4E0BFB06FC25EA06471E
:101B70000EFB06F607FB0EFE0BFB07F71EEB064EF1
:101B80004CEB164C4FF000061EEB074E4CEB174B80
:101B900018EB0B0840F1000018EB0E0B58EB000897
:101BA00040F100008F1A4FF000013CBFC943661B93
:101BB00014BFB5EB040C00213CBFC943F61B4FEA30
:101BC00017444EEA8E0E27EA04454FEA1C4704FBF1
:101BD00007622CEA074C05FB07F70CFB05F604FB34
:101BE0000CFC16EB074642EB174216EB0C4642EB99
:101BF0001C421BEB060658EB0202414146EA9E06D8
:101C000001D5BDE80189B619524141EB0101A3F1AB
:101C10000103BDE801894FEA14454FEA114724EA60
:101C2000054621EA074C05FB07F406FB07F70CFB0A
:101C300006F105FB0CFC11EB074144EB17444FEA9E
:101C4000124711EB0C4144EB1C4422EA074C05FB04
:101C500007F206FB07F70CFB06F605FB0CFC16EB80
:101C6000074642EB174216EB0C4642EB1C456A183E
:101C700054F1000148BF7047B619524141EB0101D0
:101C8000A3F10103704795F0000F37D04FEA1142DE
:101C90004FEA144721EA024624EA074C02FB07F107
:101CA00006FB07F70CFB06F402FB0CFC14EB0744E5
:101CB00041EB17414FEA154714EB0C4441EB1C4133
:101CC00025EA074C02FB07F506FB07F70CFB06F6B7
:101CD00002FB0CFC16EB074645EB174516EB0C46D2
:101CE00045EB1C42121951F1000148BF7047B6196B
:101CF000524141EB0101A3F1010370474FEA144542
:101D00004FEA114724EA054621EA074C05FB07F193
:101D100006FB07F70CFB06F24FF0000605FB0CFC78
:101D200012EB074241EB174112EB0C4251EB1C4105
:101D300048BF7047921841EB0101A3F101037047BE
:101D400030B58BB004460D460995002007900C482D
:101D5000009000208DF82A0002944FF40060069055
:101D6000802004902020089006480190401505909E
:101D700000200390684602F0C1F90BB030BD0000AE
:101D8000080002404C24014000B585B0274800906F
:101D900001208DF810004FF460200390244801903A
:101DA00008208DF80A00FB20ADF8080001208DF80E
:101DB0001100684602F0B8FD0723012200211B48EC
:101DC00002F01CFE072302220121184802F016FE31
:101DD000072303220221154802F010FE07230422E4
:101DE0000321124802F00AFE0723052204210F48AE
:101DF00002F004FE0723062205210C4802F0FEFD36
:101E000007231A460621094802F0F8FD0723082295
:101E10001946064802F0F2FD0121044800F015F8C9
:101E2000024802F0F9FD05B000BD000000240140A9
:101E30000008014021B1826842F00102826003E0A3
:101E4000826822F001028260704721B1826842F408
:101E50008072826003E0826822F480728260704740
:101E6000014600208A6802F004020AB1012000E065
:101E700000207047014600208A6802F008020AB17B
:101E8000012000E00020704730B50246002000230A
:101E900050680F4C20400D790C6844EA052420431B
:101EA000506090680B4C2040D1E902542C434D798E
:101EB00044EA450420439060D06A20F470000C7C12
:101EC000641EE4B2234340EA0350D06230BD0000F8
:101ED000FFFEF0FFFDF7F1FFF0B504460D460020D0
:101EE0000021092D11DDE068A5F10A0606EB460781
:101EF000072606FA07F18843A5F10A0606EB46060F
:101F000003FA06F10843E0600CE0206905EB4507A1
:101F1000072606FA07F1884305EB450603FA06F1A2
:101F200008432061072A0FDA606B561E06EB86070E
:101F30001F2606FA07F18843561E06EB860605FAA9
:101F400006F10843606322E00D2A0FDA206BD61FEA
:101F500006EB86071F2606FA07F18843D61F06EB15
:101F6000860605FA06F10843206310E0E06AA2F154
:101F70000D0606EB86071F2606FA07F18843A2F135
:101F80000D0606EB860605FA06F10843E062F0BD91
:101F9000816841F008018160704721B1826842F494
:101FA000A002826003E0826822F4A002826070478F
:101FB000816841F004018160704710B50446207AC1
:101FC000012800D110BD6068807C40B92168C868D4
:101FD000012103F0C0FF0121606803F07BFA00BF1C
:101FE000F0E72DE9F84380460D4616461F460C20C3
:101FF000FEF764F90446384603F084FA6060002076
:10200000207200231A4619464046009503F06AF8EC
:10201000206001223146206803F07CF92046BDE8AB
:10202000F88300BFFEE7000010B5022000F028F999
:1020300028B1034800688047022000F061F810BD15
:10204000A400002010B5202000F01AF928B10348A0
:1020500000688047202000F053F810BDA800002041
:1020600010B54FF4007000F00BF930B10348006870
:1020700080474FF4007000F043F810BDAC00002022
:1020800010B54FF4005000F0FBF830B10348006881
:1020900080474FF4005000F033F810BDB00000202E
:1020A00010B54FF4003000F0EBF830B10348006891
:1020B00080474FF4003000F023F810BDB40000203A
:1020C00010B54FF4001000F0DBF830B103480068A1
:1020D00080474FF4001000F013F810BDB800002046
:1020E00010B54FF0007000F0CBF830B10348006835
:1020F00080474FF0007000F003F810BDBC000020D6
:1021000000F0805111B10349086001E002494860C4
:1021100070470000040402400000024021B1026840
:1021200042F00102026004E002684FF6FE731A40BA
:102130000260704701684FF6FE7211400160002195
:10214000016041608160C1604B49884208D14A49C1
:102150000839496841F00F01474A083A51608AE05E
:1021600045491431884208D143490839496841F04A
:10217000F001414A083A51607DE03F4928318842E8
:1021800008D13D490839496841F470613A4A083A32
:10219000516070E038493C31884208D136490839ED
:1021A000496841F47041344A083A516063E0324969
:1021B0005031884208D130490839496841F47021CA
:1021C0002D4A083A516056E02B496431884208D1C3
:1021D00029490839496841F47001274A083A516091
:1021E00049E025497831884208D1234908394968AE
:1021F00041F07061204A083A51603CE01F49884232
:1022000006D1011F096841F00F01021F116032E081
:102210001A491431884208D11849091F096841F048
:10222000F001164A121F116025E014492831884236
:1022300008D11249091F096841F470610F4A121F41
:10224000116018E00D493C31884208D10B49091F43
:10225000096841F47041094A121F11600BE00749F7
:102260005031884207D10549091F096841F470219E
:10227000024A121F11607047080002400804024021
:1022800001460020002201F0805313B1054B1A686B
:1022900001E0054B1A6802EA01030BB1012000E0DE
:1022A0000020704700040240000002401AB1036899
:1022B0000B43036002E003688B430360704710B573
:1022C0000022026847F6F0739A430C6A8B68234336
:1022D0000C6923434C6923438C692343CC69234312
:1022E0004C6A23438C6A23431A430260CB684360E1
:1022F0000B6883604B68C36010BD416070477047D6
:1023000042F228304FF0E02148610020886103202C
:102310000861704710B5094A11685268084B06C336
:1023200000BF0749D1E900311B1841F10001034A00
:1023300014685268E31A8A41F3D310BD28000020C4
:102340002000002010B5012000F036F940B1012036
:1023500004490860044800688047012000F026F91D
:1023600010BD0000300000203400002010B54FF4F4
:10237000806000F021F958B14FF480602F49086067
:102380002F48006880474FF4806000F00FF953E059
:102390004FF4006000F010F958B14FF40060274985
:1023A00008602848006880474FF4006000F0FEF89D
:1023B00042E04FF4805000F0FFF858B14FF48050E5
:1023C0001E4908602048006880474FF4805000F0A4
:1023D000EDF831E04FF4005000F0EEF858B14FF452
:1023E0000050164908601948006880474FF40050B3
:1023F00000F0DCF820E04FF4804000F0DDF858B148
:102400004FF480400D4908601148006880474FF440
:10241000804000F0CBF80FE04FF4004000F0CCF823
:1024200050B14FF40040054908600A4800688047F1
:102430004FF4004000F0BAF810BD0000300000205A
:102440005C00002060000020640000206800002084
:102450006C0000207000002010B5022000F0ACF8E5
:1024600040B1022004490860044800688047022007
:1024700000F09CF810BD0000300000203800002063
:1024800010B5042000F098F840B104200449086019
:10249000044800688047042000F088F810BD000060
:1024A000300000203C00002010B5082000F084F827
:1024B00040B10820044908600448006880470820AB
:1024C00000F074F810BD0000300000204000002033
:1024D00010B5102000F070F840B1102004490860D9
:1024E000044800688047102000F060F810BD00002C
:1024F000300000204400002010B5202000F05CF8DF
:1025000048B12020234908602348006880472020E4
:1025100000F04CF83CE0402000F04EF848B140207C
:102520001C4908601D4800688047402000F03EF8C4
:102530002EE0802000F040F848B180201549086066
:10254000174800688047802000F030F820E04FF402
:10255000807000F031F858B14FF480700D49086078
:102560001048006880474FF4807000F01FF80FE0BB
:102570004FF4007000F020F850B14FF4007005499E
:1025800008600948006880474FF4007000F00EF8BA
:1025900010BD000030000020480000204C0000204A
:1025A000500000205400002058000020014908601D
:1025B0007047000014040140014600200022074B30
:1025C0001B6803EA0102054B14331B680B4013B16F
:1025D0000AB1012000E00020704700000004014023
:1025E00010B504460D4800680D490860204600F00B
:1025F00020F80A49086008460068094909688842C5
:1026000001DD012010BD05480068054909688842C0
:1026100002DA4FF0FF30F5E70020F3E7DC0000209E
:10262000E000002010B50446204603F0C4FD00B2CF
:1026300010BD70B505462846FFF7F4FF0446C017E5
:1026400004EB9070801070BD10B586B00446002079
:102650008DF816004FF6FF70ADF810000020ADF8B1
:102660001200039403A803F0FBFA684603F00EFE81
:102670000020ADF800000F20ADF8080069462046A4
:1026800003F0AEFD0420ADF800000F20ADF8080007
:102690006946204603F0A4FD00231A460321204684
:1026A00003F068FD039803F049FC06B010BD00007C
:1026B0001EB531B101290BD0022910D003291CD13C
:1026C00014E006220092082201920F4A029214E0BE
:1026D00008220092102201920C4A02920DE00C2274
:1026E0000092182201920A4A029206E010220092F9
:1026F00020220192074A029200BF00BF9DE81C0001
:1027000080E81C001EBD00009AC60008D4C800085E
:10271000C4CE00082CDC0008142290FBF2F302FB6C
:102720001302112A42D2DFE802F041090C0F121500
:10273000181B1E2125292D3135393D0001228A80A3
:1027400034E002228A8031E004228A802EE00822CE
:102750008A802BE010228A8028E020228A8025E0CF
:1027600040228A8022E080228A801FE04FF480721B
:102770008A801BE04FF400728A8017E04FF4806279
:102780008A8013E04FF400628A800FE04FF4805299
:102790008A800BE04FF400528A8007E04FF48042B9
:1027A0008A8003E04FF400428A8000BF00BF1422F9
:1027B00090FBF2F2072A1AD2DFE802F004070A0DB2
:1027C000101316000B4A0A6011E00B4A0A600EE073
:1027D0000A4A0A600BE00A4A0A6008E0094A0A60ED
:1027E00005E0094A0A6002E0084A0A6000BF00BF2B
:1027F0007047000000080140000C0140001001403B
:102800000014014000180140001C0140002001405C
:102810000146002005E00A2291FBF2F1401C01B9BB
:102820007047F8E70346981A802801DB00207047BC
:10283000881A402801DB0020F9E79818002801DAFF
:102840000020F4E78818002801DA0020EFE70120D3
:10285000EDE710B50446802C01DB002010BD4029B7
:1028600001DB0020FAE7002A01DA0020F6E7002B5E
:1028700001DA0020F2E70120F0E700000146002025
:1028800000BF04E0044A1268125C0A54401CB0F510
:10289000806FF7DB70470000E40000202DE9F84F5F
:1028A00004460E4615461F46DDE90A893B462A4680
:1028B00031462046FFF7CDFF08B9BDE8F88F281B49
:1028C000002802DDB81B002800DCF6E705EB040A4F
:1028D0000AEBDA7042103946304600F0ADFC3B4658
:1028E0002A4631462046CDF8009000F0D7F800F097
:1028F0009DFC281B012802DD404600F007FB00BFBD
:10290000DBE72DE9FC4105460E4617461C463A46D4
:1029100031462846FFF786FF08B9BDE8FC81002054
:1029200003463A463146CDE90004284600F09EFAB7
:1029300000BFF2E72DE9FC4F06460F4614461D4640
:10294000DDE90BAB00200190009080468146BAF192
:10295000000F02D1BBF1000F1FD050460AEBD0711F
:102960004910AAEB410109B10120019058460BEB37
:10297000D0714910ABEB410109B1012000905046E4
:102980000AEBD0714A100D99A2EB010858460BEBE7
:10299000D0714A100D99A2EB01093A1902EB090313
:1029A000009A9918721902EB0803019A98180E9A66
:1029B00000F01CF97A1902EB0903009A9918321BEE
:1029C000A2EB08000E9A00F011F93A1BA2EB0901E4
:1029D000721BA2EB08000E9A00F008F97A1BA2EB1A
:1029E0000901321902EB0803019A98180E9A00F0B7
:1029F000FDF8AC422CD05CB37A1902EB0903009AC3
:102A00009918321902EB0803019A98180E9A00F0EF
:102A1000EDF83A1902EB0903009A9918721BA2EB20
:102A200008000E9A00F0E2F87A1BA2EB0901321BB3
:102A3000A2EB08000E9A00F0D9F83A1BA2EB0901AC
:102A4000721902EB0803019A98180E9A00F0CEF85A
:102A5000BDE8FC8F2DE9F04106460D4614461F46A1
:102A6000DDF81880224629463046FFF7DBFE08B91C
:102A7000BDE8F0812919281B324600F0DDFB4346F2
:102A8000224629463046FFF73CFF00F0CFFB012CE1
:102A900002DD384600F03AFA00BFE9E72DE9F041DF
:102AA00006460C4617461D46DDF818802B463A466A
:102AB00021463046FFF7CDFE08B9BDE8F081B81BCE
:102AC000002802DD281B002800DCF6E7791E4346BB
:102AD0002246304600F014F8691E43463A46204626
:102AE00000F0FAF943462A463946701C00F008F80F
:102AF000434632462946601C00F0EEF900BFDCE791
:102B00002DE9F04704460D46174698460026B14683
:102B1000B246AC4202DAA146AA4601E0A946A24664
:102B20004E4605E042463946304600F05FF8761CD6
:102B30005645F7DDBDE8F0872DE9FF4F84B08146AB
:102B40008A4600200390029083460698A0EB090570
:102B50000798A0EB0A06CDF80490CDF800A0002D50
:102B600001DD012705E00DB9002702E04FF0FF3736
:102B70006D42002E02DD4FF0010806E016B94FF05D
:102B8000000802E04FF0FF387642B54201DD2C46E6
:102B900000E0344651464846119A00F027F80020DC
:102BA00003901BE0119ADDE9001000F01FF8029875
:102BB00028440290B3440298A04205DD0298001B0D
:102BC0000290019838440190A34504DDABEB040B5F
:102BD0000098404400900398401C0390611C0398A7
:102BE0008842DFDD08B0BDE8F08F0000F0B5144684
:102BF000484A1268012A1ED100291CDB40291ADA32
:102C0000454A126890420CDCB0F1FF3F05DA4FF004
:102C1000FF32424B43F821200DE0404A42F82100A8
:102C200009E0802804DD80223D4B43F8212002E0AA
:102C30003B4A42F82100802805DA002803DB4029BE
:102C400001DA002900DAF0BD24B1012C21D0022CD8
:102C50005CD13CE00A46CD1701EB5575ED1000EB59
:102C6000C515304E3668755D0B46CE1701EB5676AE
:102C7000F610A1EBC6070126BE403543EEB2CD17D4
:102C800001EB5575ED1000EBC515264F3F687E55DD
:102C90003CE0CD1701EB5575ED1000EBC515214E4D
:102CA0003668755D0B46CE1701EB5676F610A1EB34
:102CB000C6070126BE40B5430A46CE1701EB56763D
:102CC000F61000EBC616174F3F68BD551EE00A46CA
:102CD000CD1701EB5575ED1000EBC515114E36689B
:102CE000755D0B46CE1701EB5676F610A1EBC607C5
:102CF0000126BE407540EEB2CD1701EB5575ED10C3
:102D000000EBC515074F3F687E5500BF00BF00BFF1
:102D100099E70000F4000020E800002028060020C9
:102D200028070020E40000202DE9FC5F04460E4641
:102D300015461F46DDE90D9ADDF830803B462A46F0
:102D400031462046FFF785FD08B9BDE8FC9F281BEA
:102D5000002802DDB81B002800DCF6E705EB040BB9
:102D60000BEBDB7042103946304600F065FA3B460B
:102D70002A4631462046CDE9008A00F00AF800F0E4
:102D800055FA281B012802DD484600F0BFF800BFB5
:102D9000DBE72DE9FE4F05460E4690461F463B46B3
:102DA000424631462846FFF754FD08B9BDE8FE8F7C
:102DB000A8EB0500002802DDB81B002800DCF5E7C1
:102DC0000C9CA8EB0509A7EB060AB9F1000F02DD80
:102DD000BAF1000F00DCE9E76000484503DD484632
:102DE00009EBD0714C106000504503DD50460AEBF2
:102DF000D0714C1008EB050000EBD0714FEA610B6D
:102E0000B81900EBD0714910029108EB05000028B9
:102E100001DAABF1010BB819002802DA0298401E62
:102E200002900D984B462246CDE900A058460299E3
:102E300000F01CF8A8EB0401281932460D9BFFF79F
:102E40005FFE391B301942460D9B00F045F8A8EB98
:102E5000040128193A460D9BFFF752FE391B301921
:102E60002A460D9B00F038F800BF9FE72DE9FF4F81
:102E700085B0824616469846DDE9129B16B909B020
:102E8000BDE8F08F002435467000C0F10307B8F1AB
:102E9000000F02D1B9F1000F00D0012418E02B4639
:102EA0002246CDE9026BCDE9008950460699FFF72D
:102EB00041FD002F04DA042000FB0470871D06E0AA
:102EC000601B042101FB007000F10A076D1E641CE9
:102ED000AC42E4DD00BFD2E72DE9F04704460D46E1
:102EE00091469A460026AC4202DAA0462F4601E0FF
:102EF000A8462746464605E0524631464846FFF773
:102F000075FE761CBE42F7DDBDE8F08730B505469C
:102F100000240E480068441C12E0002C01DB402C09
:102F200000DB0CE00A4A52F82420511E094A52F8EC
:102F30002420501C2B462246FFF7E2FD00BF641CF4
:102F4000054800688442E8DB30BD0000EC0000204A
:102F50002807002028060020F00000200148006813
:102F600070470000E40000200146002000BF04E09C
:102F70000A5C044B1B681A54401CB0F5806FF7DBE9
:102F800070470000E40000200146012249B102E040
:102F900002EB82004200081EA1F10101F8D11046A7
:102FA00070470120FCE700000146002000BF03E05D
:102FB000034A12681154401CB0F5806FF8DB70476B
:102FC000E40000200149086070470000E400002090
:102FD0002DE9F04385B00746884614461D46DDF8C6
:102FE0003090294602A8FFF763FB03980646CDE917
:102FF0000009C01706EB5070C01002994843A4F1B5
:103000002001DDF810C001FB00C241463846029B9A
:1030100000F003F805B0BDE8F0832DE9F05F074646
:10302000884691461D46DDE90AAB08EB0A037A198A
:1030300041463846FFF70DFC08B9BDE8F09F002671
:10304000002400BF1FE000241AE0E21704EB5272D4
:10305000D21002FB056219F80220E31704EB537348
:10306000DB10A4EBC30C012303FA0CF31A40002A73
:1030700005DD08EB0401B8195A46FFF7B7FD641CDB
:103080005445E2DB761CAE42DDDB00BFD5E72DE91F
:10309000FF4F85B0804615461E46DDE9129A149F03
:1030A0000024514602A8FFF703FBB9F1000F13D02B
:1030B000B5F5803F09D353462D2200974046069927
:1030C000FFF786FF681EC54306E053462B22009794
:1030D00040460699FFF77CFF00241CE0601CFFF7C8
:1030E00053FFB5FBF0F100FB115B2046FFF74CFFEF
:1030F000BBFBF0F03030C0B206EB0901091B491EE2
:10310000CDE90070029A01FB02805346019A0699AC
:10311000FFF75EFF641CB442E0DB09B0BDE8F08F4E
:103120002DE9FF470646884615461F46DDF83090D4
:103130000024394601A8FFF7BBFA00BF0AE0CDF82A
:1031400000902A5D019904FB01603B464146FFF770
:103150003FFF641C285D0028F1D1BDE8FF87000017
:103160002DE9F04F80460C46099D0021002000BF4C
:1031700002E000265654491CEF1705EB5777FF1065
:103180007F1C5F438F42F4DC002149E0002044E0D3
:1031900004EB00094FEAE97A09EB5A7A4FEAEA0AA6
:1031A00008EB010B0BEBCA1ADFF87CB0DBF800B0C0
:1031B0001BF80AA004EB000C4FEAEC7B0CEB5B7BEA
:1031C0004FEAEB0BACEBCB0E4FF0010B0BFA0EFB07
:1031D0000AEA0B0A27464FEAE47B04EB5B7B4FEAE3
:1031E000EB0BA4EBCB0B4AFA0BFA4FEAE07B00EBBC
:1031F0005B7B4FEAEB0B0BFB031B12F80BB04AEAAD
:103200000B0A06464FEAE07B00EB5B7B4FEAEB0BD9
:103210000BFB031B02F80BA0401CA842B8DB491CA7
:103220009942B3DBBDE8F08FE400002000200149A3
:1032300008607047F400002010B50123044C23609F
:10324000044B1A60044B1860044B196010BD000059
:10325000F4000020E8000020EC000020F000002036
:1032600010B548211A2000F04DFB48211B2000F02A
:1032700049FB48211C2000F045FB1021162000F0DE
:1032800041FB10BD2DE9F04102460025002600203B
:1032900000230024002791F803C00CF00F0591F8DB
:1032A00003C00CF0100CBCF1000F03D091F802C069
:1032B0004CEA050591F800C0BCF1000F31D014684C
:1032C00000202BE04FF0010C0CFA00F3B1F800C025
:1032D0000CEA03069E4220D183004FF00F0C0CFA3B
:1032E00003F7BC4305FA03FC4CEA040491F803C05D
:1032F000BCF1280F06D14FF0010C0CFA00FCC2F80B
:1033000014C00AE091F803C0BCF1480F05D14FF09A
:10331000010C0CFA00FCC2F810C0401C0828D1D3E4
:103320001460B1F800C0BCF1FF0F34DD5468002018
:103330002EE000F1080C4FF0010808FA0CF3B1F888
:1033400000C00CEA03069E4221D183004FF00F0C0F
:103350000CFA03F7BC4305FA03FC4CEA040491F8A9
:1033600003C0BCF1280F05D100F1080C08FA0CF8D5
:10337000C2F8148091F803C0BCF1480F07D100F1E6
:10338000080C4FF0010808FA0CF8C2F81080401C35
:103390000828CED35460BDE8F0810246002093682F
:1033A0000B400BB1012000E00020704741617047E5
:1033B000016170470AB1016100E04161704700009E
:1033C00070B506460024FFF7C9FD0546F06AFFF711
:1033D000CBFDB07801284ED15D48006830B101289E
:1033E00016D0022824D0032844D133E000240BE077
:1033F000204604EBD0714910A4EB410119B1285DBE
:1034000040F0AA002855641CB4F5806FF0DB31E071
:10341000002409E0204604EBD0714910A4EB4101DF
:1034200009B1285D2855641CB4F5806FF2DB21E0FA
:1034300000240BE0204604EBD0714910A4EB4101BD
:1034400019B9285D40F055002855641CB4F5806F0B
:10345000F0DB0FE0002409E0204604EBD0714910B6
:10346000A4EB410109B9285D2855641CB4F5806FAF
:10347000F2DB00BF51E0B07800284ED1344800683C
:1034800030B1012816D0022824D0032844D133E0DB
:1034900000240BE0204604EBD0714910A4EB41015D
:1034A00019B1285D00F0AA002855641CB4F5806F9E
:1034B000F0DB31E0002409E0204604EBD071491034
:1034C000A4EB410109B100202855641CB4F5806FBC
:1034D000F2DB21E000240BE0204604EBD071491020
:1034E000A4EB410119B9285D00F055002855641C72
:1034F000B4F5806FF0DB0FE0002409E0204604EB18
:10350000D0714910A4EB410109B900202855641C71
:10351000B4F5806FF2DB00BF00BF0D480068401CAF
:103520000B490860F06AFFF7A9F9316AC1F10A0195
:1035300001EB81014800FEF7EDFE05480068042814
:1035400004D1002002490860012070BD0020FCE782
:10355000F80000202DE9F05F04460D461646994616
:103560002968206808F01EFD55D02968206808F0F9
:10357000B5FD25D22168286808F0ECFE824608F0E7
:10358000B5FB07460022264B08F056F902D2286800
:10359000206043E0304608F075FD824621682868C7
:1035A00008F0D8FE8346514608F03AFC804649466A
:1035B00008F0C8FD0746216808F0C4FB20602DE034
:1035C0002968206808F08AFE28D22968206808F057
:1035D000C1FE824608F08AFB07460022104B08F025
:1035E0002BF902D22868206018E0304608F04AFD26
:1035F00082462968206808F0ADFE8346514608F0EF
:103600000FFC8046494608F09DFD0746216808F0FA
:1036100096FE206002E00120BDE8F09F0020FBE75D
:103620000000E03F00BFFEE721B1028842F4806263
:10363000028004E002884FF6FF331A400280704790
:1036400070B502460024002500230020958A138BC4
:103650001B0445EA030626F07F4404EA01068E4275
:1036600001D1012000E0002070BD21B1028842F0AC
:103670000102028004E002884FF6FE731A400280C5
:10368000704721B1828842F40062828004E082881F
:103690004FF2FF731A4082807047000010B5044655
:1036A0000B48844209D10121480501F079FE00212F
:1036B0004FF4001001F074FE08E00121880501F0CC
:1036C0006FFE00214FF4800001F06AFE10BD000083
:1036D0000054004021B1028842F48072028004E06C
:1036E00002884FF6FF631A400280704721B10288BA
:1036F00042F40072028004E002884FF6FF531A4041
:10370000028070472DE9F04385B004460D4600263F
:10371000B1460427DFF8CC80A6884FF6C07006407B
:10372000684601F06DFEDDF808802F48B8FBF0F028
:103730001FFA80F946EA0906A68020884FF6FE7136
:103740000840208000262949286888420CD828682B
:103750004000B8FBF0F087B2042F00DA04273E43A4
:1037600009F10100208427E0E8884BF6FF718842C8
:1037700006D1286800EB4000B8FBF0F087B209E002
:10378000286800EBC00101EB0010B8FBF0F087B235
:1037900047F48047C7F30B0008B947F0010747F427
:1037A000004006434FF4967009FB00F04FF47A7125
:1037B00090FBF1F0401C2084A683208840F001009B
:1037C000208026884FF6F5300640A888698908438E
:1037D00006432680A88929890843208105B0BDE8D1
:1037E000F083000000127A0040420F00A086010022
:1037F000F8B504460D4616461F463B462A46214666
:1038000003480096006800F0DBFD0020F8BD0000D2
:10381000000100200146088AC0B2704712B141F091
:10382000010102E04FF6FE731940018270470182E8
:1038300070470000F8B504460D4616461F463B4645
:103840002A46214603480096006800F042FF002007
:10385000F8BD000000010020F8B504460D461646EC
:103860002148844204D10121042001F0A9FD2EE069
:103870001E48844204D10121082001F0A1FD26E068
:103880001B48844204D10121102001F099FD1EE063
:103890001848844204D10121202001F091FD16E056
:1038A0001548844204D10121402001F089FD0EE039
:1038B0001248844204D10121802001F081FD06E0FC
:1038C0000F48844203D10121801501F079FD8DF864
:1038D0000360ADF8005003208DF8020069462046D1
:1038E000FFF7D0FCF8BD000000080140000C0140CB
:1038F000001001400014014000180140001C01406C
:10390000002001407CB505460C4669462846FEF776
:1039100003FFBDF8041022460098FFF79DFF7CBD11
:103920007CB5044669462046FEF7F6FEBDF8041055
:103930000098FFF732FD08B9012000E0002005469D
:10394000BDF804102A460098FFF734FD7CBD7CB515
:1039500005460C4669462846FEF7DEFEBDF8041013
:1039600022460098FFF726FD7CBD10B501F0E2FF6E
:103970004FF4A06001F090F8FEF7C2FC10BD2DE9F5
:10398000F04105460E4617461020FCF797FC04460A
:103990004FF47A7001F0B6FDE060A7712560A68053
:1039A0000020E07120722046BDE8F08170B5044629
:1039B0000D46207A01280CD1E06801F0B7FD0128FE
:1039C00007D1002020720021E06801F083FD022071
:1039D00070BDE079D8B9A1882068FFF7DEFCA17935
:1039E000884214D10120E0710A20FEF793FCA188DF
:1039F0002068FFF7D2FCA179884221D101202072F2
:103A0000E06885600121E06801F064FD18E0A188AC
:103A10002068FFF7C2FCA179884211D00020E07134
:103A2000207A01280CD100202072E06801F07EFD90
:103A3000012805D00021E06801F04CFD0120C7E716
:103A40000020C5E7F8B50546284606F0C3FB00246C
:103A5000684606F0D7FC044614B14FF0FF30F8BDBD
:103A6000782007F099FA044614B16FF00100F6E7E8
:103A7000782006F0B5FB044614B16FF00200EEE7C3
:103A8000642007F039FA044614B16FF00300E6E74A
:103A900003F0EEF8044614B16FF00400DFE71648B7
:103AA00006F034FA064603F059FA044614B16FF0F2
:103AB0000500D4E740F2731002F082FF044614B10F
:103AC0006FF00600CBE7642003F078F9044614B1E8
:103AD0006FF00700C3E707F039FB044614B16FF03D
:103AE0000800BCE7012007F0F9F8044614B16FF0B4
:103AF0000900B4E70020B2E7340100202DE9F041CD
:103B000004460E4615462946606808F0E7FA10D2CA
:103B100085F000473846616808F0E0FA09D286F07F
:103B200000473846216808F0D9FB02D20120BDE8E1
:103B3000F0810020FBE700002DE9FC4704468946A0
:103B400092465146606808F0C9FA2DD28AF00045C5
:103B50002846616808F0C2FA26D21448007858B99D
:103B600089F000452846216808F0B8FB1CD20120E6
:103B70000E490870BDE8FC87484608F0B7F80746CC
:103B80000B4A0C4B07F0C8FF81F000460546206841
:103B900008F0ACF82A463346CDE9000107F086FF6D
:103BA00002D20020014908700020E3E74401002010
:103BB0009A9999999999B93F2DE9F04104460E4691
:103BC00015462946206808F089FA10D285F000478A
:103BD0003846216808F082FA09D286F00047384654
:103BE000616808F07BFB02D20120BDE8F081002073
:103BF000FBE700002DE9FC47044689469246514602
:103C0000206808F06BFA2DD28AF00045284621681A
:103C100008F064FA26D21448007858B989F00045B3
:103C20002846616808F05AFB1CD201200E49087032
:103C3000BDE8FC87484608F059F807460B4A0C4B8C
:103C400007F06AFF81F000460546606808F04EF80C
:103C50002A463346CDE9000107F028FF02D20020B2
:103C6000014908700020E3E7460100209A999999DC
:103C70009999B93F2DE9F04104460E46154629466B
:103C8000206808F02BFA0ED285F0004738462168EC
:103C900008F024FA07D23146606808F01FFB02D210
:103CA0000120BDE8F0810020FBE700002DE9FC4782
:103CB00004468A4691464946206808F00FFA2AD2FF
:103CC00089F000452846216808F008FA23D21348F5
:103CD000007848B95146606808F000FB1BD201200B
:103CE0000E490870BDE8FC87504607F0FFFF074605
:103CF0000B4A0C4B07F010FF05460E46606807F0B4
:103D0000F5FF2A463346CDE9000107F095FD02D2C2
:103D10000020024908700020E4E70000450100206F
:103D20009A9999999999B93F2DE9FE4F824689460A
:103D3000934600200290BAF1060F28D2DFE80AF07D
:103D400003080F141B20D9F800000290224C1EE03B
:103D5000D9F8000080F000400290204C17E0D9F81C
:103D6000040002901E4C12E0D9F8040080F00040DC
:103D700002901C4C0BE0D9F8080002901A4C06E0A7
:103D8000D9F8080080F000400290184C00BF00BF36
:103D9000207840B95946029808F0A0FA19D20120BB
:103DA0002070BDE8FE8F584607F0A0FF104A114B67
:103DB000CDE9000107F0B0FE05460E46029807F077
:103DC00095FF07462A46334607F036FD01D200200C
:103DD00020700020E5E700003D0100203E010020AA
:103DE0003F0100204001002041010020420100204D
:103DF0009A9999999999B93F2DE9F04104460E464F
:103E000015462946606808F069F90ED285F000472A
:103E10003846616808F062F907D23146206808F038
:103E20005DFA02D20120BDE8F0810020FBE700002E
:103E30002DE9FC4704468A4691464946606808F0E9
:103E40004DF92AD289F000452846616808F046F904
:103E500023D21348007848B95146206808F03EFA4A
:103E60001BD201200E490870BDE8FC87504607F0C0
:103E70003DFF07460B4A0C4B07F04EFE05460E462B
:103E8000206807F033FF2A463346CDE9000107F0EA
:103E9000D3FC02D20020024908700020E4E70000B1
:103EA000430100209A9999999999B93FFEB5044622
:103EB000684600F057F8BDF9000008F0E3F8064640
:103EC000264907F0ADFF05464FF0814108F03AF969
:103ED0002060BDF9020008F0D5F806461F4907F03A
:103EE0009FFF05464FF0814108F02CF96060BDF955
:103EF000040008F0C7F80646184907F091FF054688
:103F00004FF0814108F01EF9A060BDF9060008F0ED
:103F1000B9F80646114907F083FF0546104908F035
:103F200011F9E060BDF9080008F0ACF806460B494D
:103F300007F076FF05460A4908F004F92061BDF94B
:103F40000A0008F09FF80646044907F069FF054695
:103F5000034908F0F7F86061FEBD000000FEFF466F
:103F60000000FA4370B504463B22D021384800686F
:103F700000F04EFA3B22D0213548006800F048FAA4
:103F800005463C22D0213248006800F041FA06463E
:103F900046EA052000B220803D22D0212C4800684E
:103FA00000F036FA05463E22D0212948006800F08C
:103FB0002FFA064646EA052000B260803F22D02153
:103FC0002348006800F024FA05464022D02120480A
:103FD000006800F01DFA064646EA052000B2A080FF
:103FE0004322D0211A48006800F012FA0546442204
:103FF000D0211748006800F00BFA064646EA052073
:1040000000B2E0804522D0211148006800F000FA9B
:1040100005464622D0210E48006800F0F9F9064610
:1040200046EA052000B220814722D02108480068D6
:1040300000F0EEF905464822D0210548006800F05E
:10404000E7F9064646EA052000B2608170BD00002F
:104050003001002010B5044601236B22D021144802
:10406000006800F053FB00236C22D0211048006848
:1040700000F04CFB09231922D0210D48006800F004
:1040800045FB06231A22D0210948006800F03EFBB8
:1040900008231B22D0210648006800F037FB0823C4
:1040A0001C22D0210248006800F030FB10BD000047
:1040B000300100202DE9F04104460D4616461F460A
:1040C00001200C490873084605814681046000F010
:1040D00017F9084808490860012F05D1084600680B
:1040E000FFF7B0FCBDE8F08103480068FFF7B2FFBE
:1040F0000020F7E7380800203001002010B58CB010
:1041000004462068FEF716F80121084601F028F958
:10411000E069039060680190A0680290E0680590F3
:104120002069069060690790A0690890606A049011
:10413000206A09904FF480500A9000200B9001A94A
:104140002068FEF7BCF894F82A00002850D001221D
:1041500002212068FEF7AAF828492068884203D186
:104160000B208DF8000034E0244914312068884287
:1041700003D10C208DF800002BE020492831206865
:10418000884203D10D208DF8000022E01B493C310C
:104190002068884203D10E208DF8000019E01749ED
:1041A00050312068884203D10F208DF8000010E0C4
:1041B000124964312068884203D110208DF8000034
:1041C00007E00E4978312068884202D111208DF82D
:1041D000000001208DF8030094F828008DF80100FC
:1041E00094F829008DF80200684600F01DFC00BF1D
:1041F00001212068FDF792FF0CB010BD08000240BD
:10420000174A904202D1174A116028E0144A14322A
:10421000904202D1144A116021E0114A28329042A2
:1042200002D1124A11601AE00D4A3C32904202D18A
:104230000F4A116013E00A4A5032904202D10D4AEF
:1042400011600CE0064A6432904202D10A4A1160C1
:1042500005E0034A7832904201D1084A1160704764
:1042600008000240A4000020A8000020AC000020AC
:10427000B0000020B4000020B8000020BC000020E6
:1042800070B504460D4600212046FDF747FF29463C
:104290002046FEF732F801212046FDF73FFF70BDB2
:1042A00070B505460E46144624E031462846FFF711
:1042B000C7F9012803D100200F49887470BD0E484A
:1042C000807C50B901200C4988740C480268406811
:1042D000121940F10000C1E9002007480CC8074846
:1042E00001684068891A984104D300200249887403
:1042F0000120E3E7D9E70000C001002028000020EA
:104300001FB50446207B78B12289638942EA030104
:1043100014222068FFF7A0FA2289638942EA030188
:104320002068FFF745F842E06068FFF7B7F92049D9
:104330006068884209D10121480501F021F81C225A
:10434000C0211C48FFF788FA0DE01B4960688842CD
:1043500009D10121880501F013F81C224FF44061B6
:104360001448FFF779FA4FF48060ADF80A000001B5
:10437000ADF80C002069009010492069884204D3F0
:104380004BF6FF70ADF8060003E04FF48040ADF847
:1043900006000020ADF80400ADF80800694660682A
:1043A000FFF7B0F901216068FFF75FF900BF1FBD9B
:1043B00000540040000C014000580040A08601005D
:1043C0002DE9FF4104460E461D460A9F204600F097
:1043D00047F900223146204600F0B8F8012202A930
:1043E000204600F0F5F8204600F03AF90122314667
:1043F000204600F0ABF83A462946204600F038F84F
:10440000207B012802D1204600F04CF9BDE8FF8155
:104410007CB504460D46164600200190012001ABF4
:104420003246294600902046FFF7CAFF9DF8040057
:104430007CBD0146086880684A89104008B10120A7
:1044400070470020FCE770B504460121204600F0CB
:1044500075F90121204600F068F92046FFF7E9FFD1
:1044600005460021204600F060F9284670BD000096
:104470002DE9F04705460F461646287B002833D025
:1044800000242AE04FF000090121284600F056F9E7
:10449000C84615E00121284600F047F92846FFF7F5
:1044A000C8FF012804D1802040FA08F040EA090939
:1044B0000021284600F039F908F1010000F0FF085A
:1044C000B8F1080FE6DB601CB04203D0002128469B
:1044D00000F02CF807F80490641CB442D2D30121F8
:1044E000284600F023F81CE0002414E0601CB042D1
:1044F00007D100216868FFF797F801216868FFF786
:10450000F5F8052208496868FFF7CAFE6868FFF7F2
:1045100081F93855641CB442E8D301216868FFF77B
:1045200083F8BDE8F08700004000030070B5044642
:104530000D462946204600F001F90121204600F0F1
:10454000F4F80021204600F0F0F870BD2DE9F041AC
:1045500004460E461746207B01281CD1012F01D1AD
:1045600046F00106002510E08020284100EA0601FF
:10457000204600F0E3F80121204600F0D6F80021A3
:10458000204600F0D2F8681CC5B2082DECDB2046AE
:10459000FFF759FF15E057B9002231466068FFF771
:1045A0003DF9052208496068FFF77AFE09E001221B
:1045B00031466068FFF732F9052204496068FFF769
:1045C0006FFEBDE8F08100008200070002000300DA
:1045D0002DE9F04105460F461646287B012823D1D8
:1045E00000241EE04FF0000814E0385D802242FAFB
:1045F00008F200EA0201284600F0A0F8012128464E
:1046000000F093F80021284600F08FF808F101002F
:1046100000F0FF08B8F1080FE7DB2846FFF713FFAB
:10462000641CB442DED316E0002412E0395D6868F1
:10463000FFF7FDF8601CB04205D005220749686805
:10464000FFF72EFE04E0052204496868FFF728FE04
:10465000641CB442EAD3BDE8F08100008400070086
:1046600010B50446207B012810D10121204600F01E
:1046700065F80121204600F058F80021204600F09E
:104680005DF80021204600F050F808E00121606844
:10469000FFF720F8052202496068FFF701FE10BD10
:1046A0000100030010B50446207B01280CD1002135
:1046B000204600F043F80121204600F036F80121A1
:1046C000204600F03BF803E001216068FFF70EF898
:1046D00010BD2DE9FF4105460E461C460A9F28469F
:1046E000FFF7BEFF002231462846FFF72FFF0122C9
:1046F00002A92846FFF76CFF3A4621462846FFF7F5
:1047000067FF2846FFF7CEFFBDE8FF817FB582B087
:1047100004460D461646012005AB32462946009058
:104720002046FFF7D6FF06B070BD19B102890368B5
:104730001A6102E0028903685A61704719B142891F
:1047400003681A6102E0428903685A6170470000F9
:1047500070B505460E46144624E03146284600F062
:1047600016FF012803D100200F49887470BD0E4840
:10477000807C50B901200C4988740C48026840685C
:10478000121940F10000C1E9002007480CC8074891
:1047900001684068891A984104D30020024988744E
:1047A0000120E3E7D9E70000D8010020280000201D
:1047B000014608688068CA89104008B10120704726
:1047C0000020FCE72DE9F04105460E461746287CFF
:1047D00000B300241BE04FF0000814E0305D80229D
:1047E00042FA08F200EA0201284600F074F80121BA
:1047F000284600F079F80021284600F075F808F105
:10480000010000F0FF08B8F1080FE7DB641CBC42B0
:10481000E1D30DE0002409E0052202216868FFF7DA
:1048200097FF315D686800F0BEFE641CBC42F3D3A4
:10483000BDE8F08110B504460021204600F042F8A2
:1048400010BD10B504460121204600F03BF810BD14
:104850002DE9F04104460E460027207CF8B10025E2
:1048600018E08020284100EA0601204600F033F8D5
:104870000121204600F038F82046FFF799FF012873
:1048800002D18020284107430021204600F02CF867
:10489000681CC5B2082DE4DB3046BDE8F081052276
:1048A00002216068FFF754FF3146606800F07BFE2C
:1048B000052201216068FFF74BFF606800F070FE81
:1048C000C0B2EAE719B1028903681A6102E00289FD
:1048D00003685A61704719B1428903681A6102E09E
:1048E000428903685A61704719B1828903681A6165
:1048F00002E0828903685A61704700BFFEE700004A
:104900002DE9F04104460D46204607F0D3FB07464B
:10491000044907F085FA0646294607F013FCBDE86E
:10492000F081000000F07F4510B586B004462F49A5
:104930006068884204D10121042000F041FD07E0B5
:104940002B496068884203D10121082000F038FD1E
:1049500028492068884204D10121401500F030FD2B
:1049600007E025492068884203D10121001500F0A5
:1049700027FD4FF4004000F0E7FC00208DF8170001
:104980002089ADF8140003208DF8160005A9606891
:10499000FEF778FC207C8DF8050000200390E0688D
:1049A000029000200090A07A8DF81000607C8DF8B5
:1049B000040069462068FDF767FA01212068FDF7C9
:1049C00039FA2068FDF7E4FA00BF2068FDF752FAD3
:1049D0000028FAD12068FDF7EBFA00BF2068FDF748
:1049E0003FFA0028FAD106B010BD000000080140CF
:1049F000000C014000240140002801402DE9F04155
:104A000004460D4616461F463B463246294620467A
:104A1000FDF762FABDE8F08110B504460121204699
:104A2000FDF7BBFA10BD704770B5002100230F22BF
:104A3000C47804B3154C246804F4E064C4F5E0645D
:104A4000210AC1F10403CA40447804FA03F18478CE
:104A50001440214309010E4C0678A155047804F056
:104A60001F050124AC4005786D11AD0005F1E0256E
:104A7000C5F8004109E0047804F01F050124AC40AA
:104A8000044D0678761145F8264070BD0CED00E027
:104A900000E400E080E100E002490143024A1160C5
:104AA000704700000000FA050CED00E010B5012190
:104AB000034800F005FA044600F022FA10BD000099
:104AC00000580040F8B50446204600F049F9064673
:104AD0002078F8B110208DF803006088A188084381
:104AE000ADF8000003208DF80200A168086869464F
:104AF000FEF7C8FBA268118910680122FEF75AFC74
:104B0000A268918910680022FEF754FC204600F04C
:104B100003FA02E06420FDF7FDFBAE21204600F021
:104B200095FA8121204600F091FAFF21204600F0FD
:104B30008DFAA421204600F089FAA621204600F033
:104B400085FA2021204600F081FA0021204600F05D
:104B50007DFA2121204600F079FA0021204600F05C
:104B600075FA7F21204600F071FA2221204600F0DC
:104B70006DFA0021204600F069FA0721204600F076
:104B800065FA4021204600F061FAA121204600F09C
:104B90005DFAC821204600F059FAA821204600F00D
:104BA00055FA3F21204600F051FAD321204600F06B
:104BB0004DFA0021204600F049FADA21204600F0A3
:104BC00045FA1221204600F041FAD521204600F096
:104BD0003DFA8021204600F039FAD921204600F024
:104BE00035FAF121204600F031FADB21204600F0B1
:104BF0002DFA3021204600F029FA8D21204600F0C0
:104C000025FA1421204600F021FAAF21204600F0B9
:104C10001DFAE068007B012803D0A068007C012811
:104C200001D100202074207C002877D04FF48060D0
:104C3000404948621020C861207820B3A0684068CD
:104C40003D49884202D13D483A490860A068406821
:104C50003B49884203D13948283036490860A0686A
:104C600040680C30334948606188A2681068FEF7DC
:104C70009FFBA068FFF7DEFDA168012248680221C2
:104C800000F07CFC28E0E068FFF7EAFC00227821D5
:104C9000E068FFF75BFC01222A49E068FFF798FC17
:104CA000E06840682849884203D124483C302149C3
:104CB0000860E06840682549884203D11F481430E5
:104CC0001C490860E068406810301A494860E16893
:104CD00048680121FEF7D5FC0120164981F82A0019
:104CE0001B488860002088618020086100200862DD
:104CF0004861C860022081F8280081F8290008680E
:104D00001449FFF77DFA0120134908700020134968
:104D100008700848FFF7F2F90648B060002503E084
:104D20000020316848556D1CB5F5806FF8DB3046C2
:104D3000F8BD0000F00500200030014030000240C6
:104D400000380040A10000200054004000580040FE
:104D5000F0010020814D0008A2000020A3000020E7
:104D600070B505460C20FBF7A9FA04464FF48060A5
:104D7000FBF7A4FA206065600020A060204670BDAB
:104D80000020014908707047A200002010B500BF44
:104D9000114800780028FBD110480078D0B910489D
:104DA00000684068007848B10D4909684968896819
:104DB000052248680221FFF7CBFC08E00849096892
:104DC0004968C968052248680649FFF769FA012061
:104DD0000249087010BD0000A2000020A3000020BE
:104DE0009C0000208400070010B53048006840682F
:104DF000007C012808D02D4A126811682B4A1268DD
:104E0000506800F045F94EE029480078002848D164
:104E1000002407E0254800680068005D2549085522
:104E2000601C84B2B4F5806FF4DB204800684068F1
:104E3000007888B11D4A1268526851881B4A12686E
:104E4000526892681068FEF7B3FA18490968496811
:104E50008868FFF7EFFC15E0144909684968C868DD
:104E6000FFF7FEFB1149096849680022C8687821EC
:104E7000FFF76CFB0D49096849680122C8680E49B3
:104E8000FFF7A6FB01200A49087000200B490870B3
:104E900006490968896808684FF48061FFF7F0F9EE
:104EA00001E0002010BD0120FCE700009C00002074
:104EB000A2000020F0010020A1000020A30000209B
:104EC0002DE9F04107460E461420FBF7F7F904469A
:104ED000676000202073094820612046FFF710FA20
:104EE0001420FBF7EBF90546EC60002028702E74C7
:104EF0002846FFF7E7FDBDE8F081000040420F00C3
:104F000010B5044603480460014609680868FEF7C6
:104F100059F810BD9C00002010B50446A188A26875
:104F20001068FEF745FA6420FDF7F4F9A188A2683D
:104F30001068FEF73BFA6420FDF7ECF9A188A2683F
:104F40001068FEF735FA10BD10B504461048006829
:104F50004068007C01280ED1FFF718FF0C49096852
:104F60004868812100F072F80949096848682146BB
:104F700000F06CF80BE0064909684868812100F0F0
:104F800065F8034909684868214600F05FF810BDDC
:104F90009C00002070B504460025012C01D1A625F7
:104FA00000E0A7250A4800684068007C012808D175
:104FB000FFF7ECFE064909684868294600F046F804
:104FC00005E0034909684868294600F03FF870BDCC
:104FD0009C00002070B5044600250026012C02D15B
:104FE000AE25102601E0AF2514261748006840685A
:104FF000007C012814D1FFF7C9FE134909684868ED
:105000008D2100F023F8104909684868314600F006
:105010001DF80D4909684868294600F017F811E0A5
:105020000949096848688D2100F010F806490968A7
:105030004868314600F00AF803490968486829467B
:1050400000F004F870BD00009C00002013B582B091
:105050000446207880B16188A2681068FEF7A6F93E
:10506000A068FFF7E7FB9DF80C10A068FFF7F0FBC6
:10507000A068FFF7E6FB08E00120009003AB0349BE
:105080000A787821E068FFF724FB1FBDA00000200C
:1050900038B504460D462078B8B16188A26810681A
:1050A000FEF786F9A068FFF7C5FBA16801224868F2
:1050B000022100F063FA4FF480622946A068FFF7EE
:1050C00081FBA068FFF7BDFB09E04FF48060009012
:1050D0002B4603490A787821E068FFF7FAFA38BDD1
:1050E000A10000202DE9FF470546884691461F464E
:1050F0000C9E1820FBF7E2F80446A6712781E560B4
:10510000A4F81080A4F81290604885421CD136B1F2
:10511000012E09D0022E0CD0032E14D10EE05C48D3
:1051200020608015A0800EE0594820604015A080C6
:1051300009E0574820600015A08004E05448206032
:10514000C014A08000BF5FE0B5F1804F1CD136B124
:10515000012E09D0022E0CD0032E14D10EE04C48A3
:1051600020600120A0800EE0494820600220A0803D
:1051700009E0474820600420A08004E04448206003
:105180000820A08000BF3FE0424885421CD136B1D4
:10519000012E09D0022E0CD0032E14D10EE03C4873
:1051A00020604020A0800EE0394820608020A08050
:1051B00009E0394820600120A08004E036482060E2
:1051C0000220A08000BF1FE0344885421CD136B1C8
:1051D000012E09D0022E0CD0032E14D10EE02E4841
:1051E00020604020A0800EE02B4820608020A0801E
:1051F00009E0294820608015A08004E0264820604E
:105200004015A08000BF00BFA18818222068FEF7CB
:1052100023FB04F10C0000F023FD684601F074F953
:105220006020ADF800000020ADF808000120ADF8C6
:105230000200ADF8067036B1012E09D0022E0CD056
:10524000032E14D10EE06946284601F031F80EE035
:105250006946284601F078F809E06946284601F0D9
:10526000C5F804E06946284601F010F900BF00BF08
:105270000648854202D00A48854203D101212846CA
:1052800000F075FE204604B0BDE8F087002C014018
:105290000008014000040040000C014000080040EC
:1052A000003401402DE9F04104460D4618492846D6
:1052B00006F0B6FD0746218A481C06F0E3FE80464C
:1052C000394606F03FFF064606F0BCFE2081A07975
:1052D00020B92189E06801F026F916E0A0790128BB
:1052E00004D12189E06801F020F90EE0A0790228BC
:1052F00004D12189E06801F01AF906E0A0790328B9
:1053000003D12189E06801F014F9BDE8F0810000C3
:105310000000C8422DE9F04104460E4617463A46C1
:10532000314604F10C0000F03BFD0546002D03DB87
:1053300003492046FFF7B6FF2846BDE8F08100008C
:10534000000048427047000001460020034A5068B0
:1053500020F44040084350607047000000100240B5
:1053600029B1064A52690243044B5A6104E0034AD8
:1053700052698243014B5A6170470000001002409D
:1053800029B1064AD2690243044BDA6104E0034AB8
:10539000D2698243014BDA6170470000001002407D
:1053A00029B1064A12690243044B1A6104E0034A18
:1053B00012698243014B1A617047000000100240DD
:1053C00029B1064A92690243044B9A6104E0034AF8
:1053D00092698243014B9A617047000000100240BD
:1053E00029B1064AD2680243044BDA6004E0034A5A
:1053F000D2688243014BDA6070470000001002401F
:1054000030B500210022002400232D4D6D6805F0E9
:105410000C0121B1042905D0082923D105E0294D2B
:10542000056022E0274D05601FE0254D6D6805F4FD
:105430007012234D6D6805F48034022505EB92420D
:105440001CB9214D554305600BE01D4D6D6805F4F9
:1054500000351DB11C4D5543056002E0194D554303
:10546000056002E0174D056000BF00BF144D6D6878
:1054700005F0F0010909154D6B5C0568DD404560DC
:105480000F4D6D6805F4E061090A104D6B5C4568CD
:10549000DD4085600A4D6D6805F46051C90A0B4D09
:1054A0006B5C4568DD40C560054D6D6805F44041A5
:1054B000890B074D6B5CC568B5FBF3F5056130BD25
:1054C0000010024000127A0000093D000000002098
:1054D0001000002030B5817400230360436001296F
:1054E0000CD1074C826825686468521944F10003A6
:1054F000C0E900230022C2600122427430BD0000D6
:105500002800002070B505461820FAF7D7FE04469B
:10551000A5600020A074A068E06000202074607482
:10552000002121606160204670BD000010B5014679
:10553000887C10B94FF0FF3010BD0F48D1E9004210
:10554000036840681B1B90410DD301200874D1E90A
:1055500000408A68A21840F10000C1E90020002044
:10556000C8600120E8E7044B08681A685B68801A85
:10557000C8604FF00000DFE7280000201AB18388E0
:105580000B43838002E083888B438380704702460D
:10559000002013890B400BB1012000E00020704770
:1055A0000146888970478181704770470EB5012098
:1055B0008DF80A008DF808008DF809000648009063
:1055C0004FF4E1300190684600F02CF82A2108469B
:1055D00000F026F90EBD00000038014010B5044669
:1055E0000848007858B121460748FAF753FF20B918
:1055F000002004490870012010BD0020FCE70020B5
:10560000FAE70000C00000201C06002070B5044628
:10561000204601F03BF9C5B22946204600F0ABF820
:1056200070BD000010B586B004464249206888422B
:1056300010D101218803FFF7C3FE18224FF4007137
:105640003D48FEF709F948224FF480613A48FEF7D9
:1056500003F926E03949206888420ED10121480427
:10566000FFF78EFE182204213348FEF7F5F8482292
:1056700008213148FEF7F0F813E0314920688842EC
:105680000FD101218804FFF77BFE18224FF48061BF
:105690002C48FEF7E1F848224FF400612948FEF754
:1056A000DBF8606802900020ADF814000C20ADF823
:1056B00012000020ADF81000ADF80E00ADF80C009F
:1056C00002A9206801F076F8A07A68B3012240F2BE
:1056D0002551206801F048F816492068884203D116
:1056E00025208DF804000EE014492068884203D17B
:1056F00026208DF8040006E011492068884202D176
:1057000027208DF8040001208DF80700207A8DF8FD
:105710000500607A8DF8060001A8FFF785F90A49AF
:10572000206800F05FF800BF0121206800F0D9FF79
:1057300006B010BD003801400008014000440040A0
:1057400000480040000C01400D5600080FB410B591
:105750009AB004461EA8009001A8009A1D99FAF775
:1057600001FE0020009001A9204600F02CF81AB09C
:1057700010BC5DF814FB70B504460D462946204662
:1057800001F089F800BF8021204600F0B6FF002814
:10579000F9D070BD38B505460C4600949DF8001050
:1057A0002846FFF7E8FF9DF801102846FFF7E3FFC2
:1057B0009DF802102846FFF7DEFF9DF803102846EB
:1057C000FFF7D9FF38BD70B506460C46002505E049
:1057D000615D3046FFF7CFFF681CC5B2605D0028F1
:1057E000F6D170BD084A904202D1084A11600AE021
:1057F000074A904202D1074A116004E0064A9042EB
:1058000001D1064A1160704700380140CC000020E9
:1058100000440040D000002000480040D400002098
:10582000024A1070024A117070470000C800002040
:10583000C900002010B500F001F810BD0CB5002023
:10584000019000903348006840F48030314908608E
:1058500000BF3048006800F4003000900198401C00
:105860000190009818B90198B0F5A06FF1D12948BE
:10587000006800F4003010B10120009001E0002029
:1058800000900098012843D12348006840F01000A0
:10589000214908600846006820F0070008600846B3
:1058A000006840F0020008601A48406819494860E2
:1058B0000846406848600846406840F48060486098
:1058C0000846406820F47C1048600846406840F470
:1058D000E81048600846006840F08070086000BF2B
:1058E0000C48006800F000700028F9D009484068B2
:1058F00020F00300074948600846406840F0020075
:10590000486000BF0348406800F00C000828F9D147
:105910000CBD000000100240002002400448036853
:1059200040685A1C40F1000001490A604860704715
:105930002800002010B51348006840F0010011490C
:10594000086008464068104908400E49486008460B
:1059500000680E4908400B4908600846006820F4BA
:10596000802008600846406820F4FE0048604FF43C
:105970001F008860FFF75EFF4FF000600449086079
:1059800010BD0000001002400000FFF8FFFFF6FE0F
:1059900008ED00E0F0B50C46154600220021068C0B
:1059A0004FF6FE773E400684028B018C4FF60C7654
:1059B00032407E1C06EA03162E433243104EB0429C
:1059C0000ED0104EB0420BD0B0F1804F08D00E4E2A
:1059D000B04205D00D4EB04202D00D4EB04206D1BD
:1059E0004FF6FD76314044F00106314305E04FF6B5
:1059F000F576314044F00106314302830184F0BD65
:105A0000002C014000340140000400400008004028
:105A1000000C0040F0B50C4615460022002100267F
:105A2000078C4FF6EF7C07EA0C070784028B018C8A
:105A30004FF6FF7707EA041640F6FF473A404FF665
:105A4000FF7707EA03373A434FF6FF7707EA052760
:105A50003A43114FB8420ED0104FB8420BD0B0F1BC
:105A6000804F08D00E4FB84205D00E4FB84202D03A
:105A70000D4FB84206D14FF6DF77394046F0100798
:105A8000394305E04FF65F77394044F0100739435A
:105A900002830184F0BD0000002C0140003401406D
:105AA0000004004000080040000C0040F0B50C4627
:105AB0001546002200210026078C4FF6FF6C07EAEE
:105AC0000C070784828B018C4FF6FF7707EA0426C8
:105AD0004FF60C773A404FF6FF7707EA03172F434C
