:020000040800F2
:1000000098080020050100080B1200087F0C00086A
:10001000E10E0008BD0A0008C3230008000000002C
:100020000000000000000000000000007D19000832
:10003000FD0A00080000000031180008411B0008FC
:100040001F0100081F0100081F0100081F01000810
:100050001F0100081F0100081F0100081F01000800
:100060001F0100081F0100081F0100081F010008F0
:100070001F0100081F0100081F0100081F010008E0
:100080001F0100081F0100081F0100081F010008D0
:100090001F0100081F0100081F0100081F010008C0
:1000A0001F0100081F0100081F0100081F010008B0
:1000B000E51D00081F0100081F0100081F010008BE
:1000C0001F0100081F0100081F0100081F01000890
:1000D0001F0100084D2100081F0100081F01000832
:1000E0001F0100081F0100081F010008DFF810D0E1
:1000F00000F078FB00480047A52C0008AFF3008013
:10010000980800200648804706480047FEE7FEE7BB
:10011000FEE7FEE7FEE7FEE7FEE7FEE7FEE7FEE7B7
:10012000451B0008ED00000810B5002200E0521C3D
:10013000835C8C5CA34201D1002BF8D1D8B2E1B230
:10014000401A10BD80EA010210B502F000434000E1
:1001500022D04A001FD0010E01EB1261C0F35600FD
:10016000C2F3560240F4000042F40002A0FB022059
:1001700000047F39140400D0401C50EA124001D41E
:100180004000491EC2B20C0604EBD010401C4008CF
:10019000802A02D003E0002010BD20F001000029D9
:1001A00000DA0020184310BD30B480EA010202F0EA
:1001B000004530F0004221F0004013D090B1C30D53
:1001C000D40DC2F31601C0F31600E41A41F4000185
:1001D00040F400027D34914201D3641C00E04900E8
:1001E000002C02DA30BC002070474FF400000023DE
:1001F000914201D3891A034340084FEA4101F7D1E4
:1002000051B1914202D14FF0004105E002D24FF0CE
:10021000010101E06FF0010103EBC450284430BC40
:1002200000F006B92DE9FE4F81EA030404F0004412
:1002300021F0004100944FF0000B23F0004350EAFE
:1002400001045ED052EA03045BD0C3F30A54C1F345
:100250000A552C44A4F2F3340194A0FB0254C1F3D8
:10026000130141F48011C3F3130343F4801301FB22
:10027000024400FB034E840A970A44EA815447EA89
:100280008357A4FB076802958D0A05FB07854FEA93
:10029000932C04FB0C542705029D4FEA065847EAAD
:1002A0001637B5EB08056EEB070C870E920E47EA82
:1002B000811742EA8312A7FB0201B6EB0B0164EB44
:1002C00000042B0D43EA0C335E1844EB1C50DA4655
:1002D0005146E7FB0201C5F313044FEA0B3343EA2F
:1002E00014534FEA0432019C43EA0603A4F10C04C0
:1002F0000294009CCDE900B400F0E0F803B0BDE842
:10030000F08F00200146F9E796230022114600F005
:1003100098B800F0004220F00040C10DC0F3160074
:1003200040F400007F2901DA00207047962903DCA1
:10033000C1F19601C84001E096398840002AF4D006
:100340004042704700F0004230F000400AD0C10D3A
:1003500001F56071C0F3160042EA0151C20840077E
:100360001143704700200146704701F0004330B44C
:1003700021F0004150EA010206D00A0DA2F5607298
:10038000C1F31301002A02DC30BC00207047440F87
:1003900044EAC104C100E01830BC00EBC25000F0D8
:1003A00047B830B50B46014600202022012409E061
:1003B00021FA02F59D4205D303FA02F5491B04FA1E
:1003C00002F52844151EA2F10102F1DC30BD2DE931
:1003D000F05F0546002092469B46884606468146C9
:1003E00040241BE0284641464746224600F01BFABF
:1003F00053465A46C01A914110D311461846224618
:1004000000F002FA2D1A67EB01084F462246012040
:10041000002100F0F9F917EB00094E41201EA4F16C
:100420000104DFDC484631462A464346BDE8F09FDA
:100430000029A8BF7047401C490008BF20F00100F8
:10044000704710B4B0FA80FC00FA0CF050EA0104D6
:1004500004BF10BC704749B1CCF1200421FA04F468
:1004600011FA0CF118BF012121430843A3EB0C0141
:10047000CB1D4FEA00614FEA102042BF002010BCA4
:10048000704700EBC35010440029A4BF10BC704754
:10049000401C490008BF20F0010010BC704710B597
:1004A000141E73F1000408DA401C41F10001921897
:1004B0005B411A4301D120F0010010BD2DE9F04D40
:1004C00092469B4611B1B1FA81F202E0B0FA80F295
:1004D0002032904600F098F904460F4640EA0A00A0
:1004E00041EA0B0153465A46084313D0114653EADA
:1004F000010019D0C8F14002504600F094F90546B9
:100500000E4650465946424600F07EF9084305D053
:10051000012004E020463946BDE8F08D0020054367
:1005200046EAE0762C4337430A986305E40AA0EBD9
:1005300008000022FD0A44EA47540A3002D5002090
:100540000146E9E7010510196941DDE9084500198F
:100550006941BDE8F04DA2E72DE9FE4F804681EAF2
:100560000300C00F0C46009021F0004123F000452D
:10057000B8EB0200A94105D24046214690461C46F0
:100580000B46024623F00040104347D0270DC7F327
:100590000A00C3F30A510290401A019040286BDA16
:1005A000C3F3130040F4801B0098924620B100234F
:1005B000D2EB030A63EB0B0B01985946C0F14002E2
:1005C000504600F021F906460D4650465946019A1C
:1005D00000F039F910EB08006141002487EA11525C
:1005E00084EAE7731A4340D0009A62B3019A012A61
:1005F0004FEA075215DC001B61EB02014FF000428D
:1006000002EA0752CDE90042001C41F58011324652
:100610002B46FFF753FF03B0BDE8F08F404621465D
:10062000F9E7001B61EB0201001C41F58013001883
:100630005B412018A2F5001747EB030140EAD57093
:10064000B6196D4111E06D084FEA360645EAC075EE
:100650004FEA0752001B61EB0201001C41F58011BB
:1006600049084FEA30000019514132462B4603B089
:10067000BDE8F04FFFF713BF0098012240000023B0
:10068000D0EB020263EBE073009821464FEAE0747E
:10069000B8EB000061EB0401E9E783F000435BE79E
:1006A00081F0004158E72DE9F04D81EA030404F0A0
:1006B000004B21F0004514464FF0000A23F00041A2
:1006C00050EA050220D054EA01021DD0C5F30A57B2
:1006D0000246C5F31303C1F31300C1F30A5640F4F5
:1006E000801543F48013A7EB0608101BD64608F2CA
:1006F000FD3873EB050002D308F1010801E0921800
:100700005B41B8F1000F03DA00200146BDE8F08D2F
:1007100000204FF48011064684460EE0171B73EB51
:10072000050705D3121B63EB050306434CEA010CD6
:1007300049084FEA300092185B4150EA0107EDD1B9
:1007400052EA030012D082EA040083EA050108435A
:1007500005D0101BAB4106D20122002306E0002287
:100760004FF0004302E06FF0010253101AEB060055
:100770004CEB085110EB0A0041EB0B01BDE8F04DCA
:10078000FFF78DBEC1F30A52C1F3130140F2FF33EC
:1007900041F480119A4202DA00200146704740F28B
:1007A00033439A42A2F2334202DC524200F03BB899
:1007B00000F02AB830B5041E71F1000404DB4FF0DC
:1007C0000044404264EB0101141E73F1000405DB98
:1007D0001C464FF00043524263EB0403994208BFAA
:1007E000904230BD064C074D06E0E06840F0010342
:1007F00094E8070098471034AC42F6D3FFF77AFC30
:100800006438000884380008202A04DB203A00FA03
:1008100002F1002070479140C2F1200320FA03F357
:10082000194390407047202A04DB203A21FA02F055
:100830000021704721FA02F3D040C2F1200291401A
:10084000084319467047202A06DBCB17203A41FAA5
:1008500002F043EAE07306E041FA02F3D040C2F14D
:100860002002914008431946704721B1826842F046
:100870000102826003E0826822F001028260704718
:10088000014600208A6802F004020AB1012000E05B
:10089000002070470146C86C80B2704702460020B5
:1008A00013680B400BB1012000E0002070470146A7
:1008B00000208A6802F008020AB1012000E000204E
:1008C0007047000030B502460020002350680F4CEE
:1008D00020400D790C6844EA05242043506090685C
:1008E0000B4C2040D1E902542C434D7944EA450495
:1008F00020439060D06A20F470000C7C641EE4B247
:10090000234340EA0350D06230BD0000FFFEF0FFF9
:10091000FDF7F1FFF0B504460D4600200021092D3A
:1009200011DDE068A5F10A0606EB4607072606FA80
:1009300007F18843A5F10A0606EB460603FA06F11D
:100940000843E0600CE0206905EB4507072606FA3E
:1009500007F1884305EB450603FA06F108432061D9
:10096000072A0FDA606B561E06EB86071F2606FA6B
:1009700007F18843561E06EB860605FA06F1084382
:10098000606322E00D2A0FDA206BD61F06EB860784
:100990001F2606FA07F18843D61F06EB860605FADE
:1009A00006F10843206310E0E06AA2F10D0606EBB1
:1009B00086071F2606FA07F18843A2F10D0606EB0B
:1009C000860605FA06F10843E062F0BD816841F051
:1009D00008018160704721B1826842F4A002826000
:1009E00003E0826822F4A00282607047816841F0CF
:1009F000040181607047000010B501210648FFF72F
:100A0000EAFF00BF02210448FFF748FF0028F9D0A1
:100A10000148FFF73FFF10BD0024014000B587B03B
:100A20000121042000F022FF0121480200F01EFFF6
:100A30004FF4004000F0FEFE00208DF81B00022065
:100A4000ADF8180003208DF81A0006A9194800F027
:100A500079F801231A4619461748FFF75BFF002073
:100A60008DF8090004904FF460200390002001905D
:100A700001208DF8140000208DF8080001A90E480F
:100A8000FFF720FF01210C48FFF7EFFE0A48FFF7B0
:100A90009DFF00BF0848FFF70AFF0128FAD006486B
:100AA000FFF7A4FF00BF0448FFF7EAFE0128FAD0D1
:100AB00007B000BD000801400024014000BFFEE770
:100AC000032016E000210AE00B4A02EBC0134A1C87
:100AD0009A5C094B03EBC0135A544A1CD1B27F29CC
:100AE000F2DB0022044B03EBC01383F87F20421C8F
:100AF000D0B20828E6DB704798000020704700B5A8
:100B0000034603E04FF47A7000F005F8181EA3F1D5
:100B10000103F7D100BD00EBC001C9004FF0E02296
:100B20005161002191610521116100BF4FF0E02169
:100B3000096901F480310029F8D004214FF0E02246
:100B4000116170472DE9F041024600250026002082
:100B500000230024002791F803C00CF00F0591F842
:100B600003C00CF0100CBCF1000F03D091F802C0D0
:100B70004CEA050591F800C0BCF1000F31D01468B3
:100B800000202BE04FF0010C0CFA00F3B1F800C08C
:100B90000CEA03069E4220D183004FF00F0C0CFAA2
:100BA00003F7BC4305FA03FC4CEA040491F803C0C4
:100BB000BCF1280F06D14FF0010C0CFA00FCC2F872
:100BC00014C00AE091F803C0BCF1480F05D14FF002
:100BD000010C0CFA00FCC2F810C0401C0828D1D34C
:100BE0001460B1F800C0BCF1FF0F34DD5468002080
:100BF0002EE000F1080C4FF0010808FA0CF3B1F8F0
:100C000000C00CEA03069E4221D183004FF00F0C76
:100C10000CFA03F7BC4305FA03FC4CEA040491F810
:100C200003C0BCF1280F05D100F1080C08FA0CF83C
:100C3000C2F8148091F803C0BCF1480F07D100F14D
:100C4000080C4FF0010808FA0CF8C2F81080401C9C
:100C50000828CED35460BDE8F08102460020936896
:100C60000B400BB1012000E000207047416170474C
:100C7000016170470AB1016100E04161704700BF46
:100C8000FEE770B502460024002500230020958A67
:100C9000138B1B0445EA030626F07F4404EA010691
:100CA0008E4201D1012000E0002070BD21B10288F8
:100CB00042F00102028004E002884FF6FE731A40FF
:100CC0000280704721B1028842F48072028004E001
:100CD00002884FF6FF631A400280704721B10288F4
:100CE00042F40072028004E002884FF6FF531A407B
:100CF000028070472DE9F04385B004460D4600267A
:100D0000B1460427DFF8CC80A6884FF6C0700640B5
:100D1000684600F0BBFDDDF808802F48B8FBF0F016
:100D20001FFA80F946EA0906A68020884FF6FE7170
:100D30000840208000262949286888420CD8286865
:100D40004000B8FBF0F087B2042F00DA04273E43DE
:100D500009F10100208427E0E8884BF6FF71884202
:100D600006D1286800EB4000B8FBF0F087B209E03C
:100D7000286800EBC00101EB0010B8FBF0F087B26F
:100D800047F48047C7F30B0008B947F0010747F461
:100D9000004006434FF4967009FB00F04FF47A715F
:100DA00090FBF1F0401C2084A683208840F00100D5
:100DB000208026884FF6F5300640A88869890843C8
:100DC00006432680A88929890843208105B0BDE80B
:100DD000F083000000127A0040420F00A08601005C
:100DE00012B141F0010102E04FF6FE731940018299
:100DF000704701827047000010B5074801F010F8F5
:100E0000401C642100FB01F4034801F006F8401C7B
:100E100094FBF0F010BD00000004004010B5044841
:100E200000F0FBFF401C42F2107191FBF0F010BD8E
:100E30000004004000B587B00121042000F016FD39
:100E40000121022000F002FD48208DF81B00402007
:100E5000ADF8180003208DF81A0006A91E48FFF708
:100E600071FE1E4801F046F80020ADF81200ADF802
:100E70000E004FF6FF70ADF8100041F61F40ADF8C0
:100E80000C0000208DF8140003A9144801F00CF99F
:100E90000020ADF800000F20ADF808000020ADF8EC
:100EA0000200ADF806000120ADF8040069460B48C9
:100EB00000F0CAFF6946094801F078F85021074858
:100EC00001F0B2F80421054801F0B7F80121034808
:100ED00000F097FF07B000BD00080140000400408B
:100EE00000BFFEE710B586B00446207BD0B10121DB
:100EF000606800F0BBFC14208DF817002089618920
:100F00000843ADF8140003208DF8160005A92068E9
:100F1000FFF718FE2289638942EA03012068FFF780
:100F2000A7FE30E00121082000F0A0FC0121880587
:100F300000F08CFC1C208DF817004FF44060ADF8D9
:100F4000140003208DF8160005A91048FFF7FAFDDC
:100F50004FF48060ADF80E000001ADF810000C48B1
:100F600001904BF6FF70ADF80A000020ADF80800C4
:100F7000ADF80C0001A90748FFF7BCFE01210548A8
:100F8000FFF794FE00BF06B010BD0000000C01404A
:100F900030570500005800402DE9F04105460E4647
:100FA0001746287BE8B1002410E08020204100EAA9
:100FB0000601284600F0B3F80121284600F0A6F803
:100FC0000021284600F0A2F8601CC4B2082CECDB1B
:100FD0000121284600F09AF80021284600F096F8F2
:100FE00019E067B1002231460C48FFF7F9FE00BF57
:100FF0000B490A48FFF745FE0128F9D10BE0012211
:1010000031460648FFF7ECFE00BF06490348FFF7EC
:1010100038FE0128F9D1BDE8F081000000580040F9
:10102000820007000200030070B505460E46287BCB
:10103000E8B1002410E08020204100EA06012846A3
:1010400000F06DF80121284600F060F800212846E4
:1010500000F05CF8601CC4B2082CECDB01212846CF
:1010600000F054F80021284600F050F80AE031461C
:101070000548FFF7BEFE00BF04490348FFF701FE25
:101080000128F9D170BD000000580040840007001D
:1010900010B50446207B80B10121204600F03FF8C6
:1010A0000121204600F032F80021204600F037F8F8
:1010B0000021204600F02AF80AE001210548FFF748
:1010C00001FE00BF04490348FFF7DBFD0128F9D109
:1010D00010BD0000005800400100030010B5044698
:1010E000207B60B10021204600F019F80121204644
:1010F00000F00CF80121204600F011F803E0012176
:101100000148FFF7EBFD10BD0058004070B50446E4
:101110000D4621892A462068FFF7ACFD70BD70B5E9
:1011200004460D4661892A462068FFF7A3FD70BD7D
:1011300010B50446E1892068FFF78FFD10BD10B59A
:1011400004460021204600F045F810BD10B50446C5
:101150000121204600F03EF810BD000070B50646A3
:101160000C46307CE8B1002517E004F080013046E1
:1011700000F039F86006040E0121304600F03CF81A
:101180003046FFF7D5FF012801D144F001040021CA
:10119000304600F031F8681CC5B2082DE5DB20466A
:1011A00070BD00BF02210A4800F0DAFB0128F9D126
:1011B0002146074800F0E0FB00BF0121044800F091
:1011C000CFFB0128F9D1024800F0D3FBC0B2E7E71A
:1011D0000030014070B504460D4621892A4620683A
:1011E000FFF748FD70BD70B504460D4661892A467B
:1011F0002068FFF73FFD70BD70B504460D46A1891C
:101200002A462068FFF736FD70BD704770B5002193
:1012100000230F22C47804B3154C246804F4E0645E
:10122000C4F5E064210AC1F10403CA40447804FA19
:1012300003F184781440214309010E4C0678A1552E
:10124000047804F01F050124AC4005786D11AD0051
:1012500005F1E025C5F8004109E0047804F01F0518
:101260000124AC40044D0678761145F8264070BD47
:101270000CED00E000E400E080E100E00249014301
:10128000024A1160704700000000FA050CED00E012
:1012900070B50646002411E000222146304600F0D9
:1012A000F8F9002506E000221146304600F03EFA2B
:1012B000681CC5B2802DF6DB601CC4B2082CEBDBC9
:1012C00070BD000070B50646002414E000222146DF
:1012D000304600F0DEF9002509E0084800EBC410B4
:1012E000415D0022304600F021FA681CC5B2802D15
:1012F000F3DB601CC4B2082CE8DB70BD9800002052
:101300002DE9FF4F84B081468A4600200290834633
:101310000698A0EB09050798A0EB0A06CDF8049003
:10132000CDF800A0002D01DD012705E00DB9002753
:1013300002E04FF0FF376D42002E02DD4FF0010852
:1013400006E016B94FF0000802E04FF0FF38764291
:10135000B54201DD2C4600E03446002003901EE03B
:10136000009AD1B2019AD0B2119A00F01FF80298F7
:1013700028440290B3440298A04205DD0298001B65
:101380000290019838440190A34504DDABEB040BB7
:101390000098404400900398401CC0B20390611C28
:1013A00003988842DCDD08B0BDE8F08FF0B5034655
:1013B0001446DCB1CD1701EB5575ED10194E06EB57
:1013C000C515ED5C0A46CE1701EB5676F610A1EB7B
:1013D000C6070126BE4035430846CE1701EB5676B8
:1013E000F610104F07EBC616F5541AE0CD1701EBB7
:1013F0005575ED100B4E06EBC515ED5C0A46CE1784
:1014000001EB5676F610A1EBC6070126BE40B543A8
:101410000846CE1701EB5676F610024F07EBC616BC
:10142000F554F0BD9800002038B504462078002817
:101430007ED00121A06800F019FA10208DF8030079
:10144000A089E1890843ADF8000003208DF802006F
:1014500069466068FFF776FB01212069FFF7BAFE55
:1014600000212069FFF7C8FEC820FFF748FB20468F
:1014700000F0FAF80122AE21204600F057F90122CF
:101480000021204600F052F901221021204600F0F0
:101490004DF901224021204600F048F90122B021F7
:1014A000204600F043F901228121204600F03EF958
:1014B0000122FF21204600F039F90122A121204616
:1014C00000F034F90122A621204600F02FF9012274
:1014D000A821204600F02AF901223F21204600F0F1
:1014E00025F90122C821204600F020F90122D3214C
:1014F000204600F01BF901220021204600F016F9D9
:101500000122D521204600F011F901228021204638
:1015100000F00CF90122D921204600F007F9012240
:10152000F121204600F002F90122DA21204600E0F4
:1015300020E000F0FBF801221221204600F0F6F82E
:101540000122DB21204600F0F1F801223021204663
:1015500000F0ECF801228D21204600F0E7F801228E
:101560001421204600F0E2F80122AF21204600F0CD
:10157000DDF875E0C820FFF7C2FA0122AE2120464F
:1015800000F0D4F80122D521204600F0CFF8012246
:101590008021204600F0CAF80122A821204600F050
:1015A000C5F801223F21204600F0C0F80122D321D6
:1015B000204600F0BBF801220021204600F0B6F8DA
:1015C00001224021204600F0B1F80122A12120464D
:1015D00000F0ACF80122C821204600F0A7F8012253
:1015E000DA21204600F0A2F801221221204600F064
:1015F0009DF801228121204600F098F80122CF2198
:10160000204600F093F80122D921204600F08EF800
:101610000122F121204600F089F80122DB21204639
:1016200000F084F801223021204600F07FF80122EA
:10163000A421204600F07AF80122A621204600F0DD
:1016400075F801228D21204600F070F80122142146
:10165000204600F06BF80122AF21204600F066F82A
:101660002046FFF715FE38BD10B50446E1896068D5
:10167000FFF7FEFA6420FFF742FAE1896068FFF79E
:10168000F5FA6420FFF73BFAE1896068FFF7F0FAAA
:1016900010BD70B506460D46144645F0B001012256
:1016A000304600F043F8102040EA14110122304681
:1016B00000F03CF804F00F010122304600F036F84B
:1016C00070BD000070B5034600200FE0A2F12004B9
:1016D000144D05EB0414255C5C1E134E06EB04262A
:1016E0004C1E00EBC4043555441CE0B20828EDDB69
:1016F000002014E0A2F120040A4D05EB041500F1CE
:1017000008042D5D5C1E012606EB4404064E06EB24
:10171000C4164C1E00EBC4043555441CE0B2082826
:10172000E8DB70BD743200089800002070B50446F4
:101730000E4615462078A0B125B1A1896068FFF753
:1017400095FA03E0A1896068FFF792FA2069FFF734
:10175000F6FC31462069FFF701FD2069FFF7F6FC32
:1017600018E06069FFF794FC012278216069FFF7B7
:1017700013FC25B100216069FFF756FC03E040210E
:101780006069FFF751FC31466069FFF74DFC606905
:10179000FFF7A4FC70BD000000B589B00121042052
:1017A00000F064F80121084600F050F818208DF888
:1017B00023000120ADF8200003208DF8220008A9A5
:1017C0001A48FFF7BFF94FF0804000F093FB00206C
:1017D000ADF81A00ADF8160040F2E730ADF8180089
:1017E00041F61F40ADF8140000208DF81C0005A93B
:1017F0004FF0804000F058FC01A800F0CDFB6020C5
:10180000ADF804000020ADF80C000120ADF8060092
:101810004FF4FA70ADF80A0001A9000700F070FB60
:101820000121880700F0EDFA09B000BD0008014071
:101830007047000001460020034A506820F44040F1
:1018400008435060704700000010024029B1064A6A
:10185000D2690243044BDA6104E0034AD26982434D
:10186000014BDA61704700000010024029B1064ABE
:1018700092690243044B9A6104E0034A92698243ED
:10188000014B9A61704700000010024030B5002102
:101890000022002400232D4D6D6805F00C0121B1BC
:1018A000042905D0082923D105E0294D056022E04F
:1018B000274D05601FE0254D6D6805F47012234D1E
:1018C0006D6805F48034022505EB92421CB9214D68
:1018D000554305600BE01D4D6D6805F400351DB1E5
:1018E0001C4D5543056002E0194D5543056002E06B
:1018F000174D056000BF00BF144D6D6805F0F00185
:101900000909154D6B5C0568DD4045600F4D6D683C
:1019100005F4E061090A104D6B5C4568DD408560A7
:101920000A4D6D6805F46051C90A0B4D6B5C456842
:10193000DD40C560054D6D6805F44041890B074DDC
:101940006B5CC568B5FBF3F5056130BD0010024066
:1019500000127A0000093D00000000201000002065
:101960000246002013890B400BB1012000E000204B
:101970007047014688897047818170477047000031
:1019800000B587B001210420FFF770FF0121880313
:10199000FFF76CFF18208DF81B004FF40070ADF8B6
:1019A000180003208DF81A0006A92148FFF7CAF88D
:1019B00048208DF81B004FF48060ADF8180003201C
:1019C0008DF81A0006A91A48FFF7BCF84FF4165014
:1019D00002900020ADF814000C20ADF81200002099
:1019E000ADF81000ADF80E00ADF80C0002A91148DA
:1019F00000F072FC012240F225510E4800F046FC36
:101A00004FF4A060FFF73AFC25208DF80400012078
:101A10008DF8070000208DF805008DF8060001A85C
:101A2000FFF7F4FB0121034800F0EDFB07B000BD18
:101A3000000801400038014010B504462146054821
:101A400000F0BBFC00BF8021024800F0E8FB00284A
:101A5000F9D010BD0038014010B500F001F810BDFC
:101A60000CB50020019000903348006840F48030AD
:101A70003149086000BF3048006800F40030009031
:101A80000198401C0190009818B90198B0F5A06F1A
:101A9000F1D12948006800F4003010B10120009015
:101AA00001E0002000900098012843D123480068FD
:101AB00040F01000214908600846006820F0070047
:101AC00008600846006840F0020008601A48406854
:101AD000194948600846406848600846406840F434
:101AE000806048600846406820F47C1048600846E2
:101AF000406840F4E81048600846006840F0807094
:101B0000086000BF0C48006800F000700028F9D0A1
:101B10000948406820F003000749486008464068CB
:101B200040F00200486000BF0348406800F00C002D
:101B30000828F9D10CBD000000100240002002402E
:101B40007047000010B51348006840F001001149CB
:101B5000086008464068104908400E494860084639
:101B600000680E4908400B4908600846006820F4E8
:101B7000802008600846406820F4FE0048604FF46A
:101B80001F008860FFF768FF4FF00060044908609D
:101B900010BD0000001002400000FFF8FFFFF6FE3D
:101BA00008ED00E0F0B50C46154600220021068C39
:101BB0004FF6FE773E400684028B018C4FF60C7682
:101BC00032407E1C06EA03162E433243104EB042CA
:101BD0000ED0104EB0420BD0B0F1804F08D00E4E58
:101BE000B04205D00D4EB04202D00D4EB04206D1EB
:101BF0004FF6FD76314044F00106314305E04FF6E3
:101C0000F576314044F00106314302830184F0BD92
:101C1000002C014000340140000400400008004056
:101C2000000C0040F0B50C461546002200210026AD
:101C3000078C4FF6EF7C07EA0C070784028B018CB8
:101C40004FF6FF7707EA041640F6FF473A404FF693
:101C5000FF7707EA03373A434FF6FF7707EA05278E
:101C60003A43114FB8420ED0104FB8420BD0B0F1EA
:101C7000804F08D00E4FB84205D00E4FB84202D068
:101C80000D4FB84206D14FF6DF77394046F01007C6
:101C9000394305E04FF65F77394044F01007394388
:101CA00002830184F0BD0000002C0140003401409B
:101CB0000004004000080040000C0040F0B50C4655
:101CC0001546002200210026078C4FF6FF6C07EA1C
:101CD0000C070784828B018C4FF6FF7707EA0426F6
:101CE0004FF60C773A404FF6FF7707EA03172F437A
:101CF0003A43114FB8420ED0104FB8420BD0B0F15A
:101D0000804F08D00E4FB84205D00E4FB84202D0D7
:101D10000D4FB84206D14FF6FF57394046F4807751
:101D2000394305E04FF2FF57394044F48077394397
:101D300082830184F0BD0000002C0140003401408A
:101D40000004004000080040000C0040F0B50C46C4
:101D50001546002200210026078C4EF6FF7C07EA7C
:101D60000C070784828B018C4FF6FF7707EA043655
:101D700040F6FF473A404FF6FF7707EA05273A4318
:101D80004FF6FF7707EA03373A43114FB8420ED0B8
:101D9000104FB8420BD0B0F1804F08D00E4FB84270
:101DA00005D00E4FB84202D00D4FB84206D14DF6C5
:101DB000FF77394046F48057394305E047F6FF572F
:101DC000394044F48057394382830184F0BD0000D8
:101DD000002C014000340140000400400008004095
:101DE000000C004010B50121880700F01CF8012804
:101DF00003D10121800700F001F810BDCA4302821F
:101E0000704721B1028842F00102028004E002889A
:101E10004FF6FE731A40028070470146888E704765
:101E20000146088F704730B5024600200023002489
:101E3000158A05EA0103958905EA010413B10CB17D
:101E4000012000E0002030BD70B505460C46244856
:101E500085420ED0234885420BD0B5F1804F08D083
:101E60002148854205D02148854202D0204885423C
:101E700000D100E000BF208850B92389A288618882
:101E80002846FFF78FFEE188284600F0E1F825E0BC
:101E9000208804280AD12389A28861882846FFF770
:101EA000C1FEE188284600F0DCF817E02088082809
:101EB0000AD12389A28861882846FFF7FFFEE188BE
:101EC000284600F0DBF809E02389A28861882846CB
:101ED000FFF73CFFE188284600F0D9F870BD00000C
:101EE000002C014000340140000400400008004084
:101EF000000C004001894FF6F872114001817047D3
:101F000070B5002400220023058C4FF6FE76354084
:101F10000584028C8388048B4FF68F752C40B51E88
:101F20002C400D882C43751E2A400D892A434D886C
:101F30002A43144DA8420BD0134DA84208D0134D8C
:101F4000A84205D0124DA84202D0124DA84213D18A
:101F50004FF6F7752A404D892A434FF6FB752A4004
:101F60008D882A434FF6FF652B404FF6FF552B40D7
:101F70008D892B43CD892B4383800483CD8885862F
:101F8000028470BD002C014000340140004001403B
:101F900000440140004801400021018041808180CF
:101FA000C180018141818181C18170472DE9F0416A
:101FB00005460C4600260127608808B9022600E085
:101FC0000026A088012801D1022700E001272088EF
:101FD000A0B92389A28861882846FFF7E3FDE1883C
:101FE000284600F035F823893A4631462846FFF75F
:101FF00019FEE188284600F034F813E02389A2880E
:1020000061882846FFF70EFEE188284600F029F88F
:1020100023893A4631462846FFF7C4FDE188284621
:1020200000F016F8BDE8F0810A46002101894FF65C
:102030008F73194011430181704702894FF6F8737D
:102040001A40028102890A430281704781867047E3
:10205000028B4FF6F3731A400283028B0A4302830A
:102060007047028B4FF2FF331A400283028B4FF608
:10207000FF7303EA01231A4302837047828B4FF6F2
:10208000F3731A408283828B0A4382837047828B68
:102090004FF2FF331A408283828B4FF6FF7303EABD
:1020A00001231A4382837047002202881D4B984205
:1020B0000ED01D4B98420BD0B0F1804F08D01B4B77
:1020C000984205D01A4B984202D01A4B984204D13C
:1020D0004FF68F731A404B881A43174B984207D01C
:1020E000164B984204D04FF6FF431A40CB881A4350
:1020F00002808B8883850B8803850A4B98420BD01E
:10210000094B984208D00E4B984205D00D4B98428F
:1021100002D00D4B984201D10B7A038601238382B2
:1021200070470000002C01400034014000040040D2
:1021300000080040000C0040001000400014004067
:1021400000400140004401400048014010B540F209
:1021500025511E4800F070F8012836D11B4800F0C8
:1021600027F9C4B21A48007868B9402C06D119483A
:10217000007818B901201649087021E0214616A000
:1021800000F022F91CE012480078012818D1402CF8
:102190000DD100201249134A127888540C49087056
:1021A00001200C49087000200E49087008E00C4816
:1021B0000C49097844540B480078401C09490870C0
:1021C00040F22551014800F00FF810BD00380140E1
:1021D0002D0000202C00002025630D0A00000000C7
:1021E000340000202E00002010B50022002340F60D
:1021F0006A14A14200D100BF0A1201249440A3B284
:10220000DC43048010BD21B1828942F400528281F6
:1022100004E082894DF6FF731A40828170470246BE
:102220000020B1F5007F00D100BF13880B400BB137
:10223000012000E00020704770B502460024002312
:102240000025002040F66A16B14200D100BFC1F35C
:10225000421501F01F03012606FA03F3012D02D1F6
:102260009689334006E0022D02D1168A334001E000
:10227000968A33400C12012606FA04F4168834407C
:1022800013B10CB1012000E0002070BDF0B5034691
:10229000002400260025002040F66A17B94200D12C
:1022A00000BF1846C1F3421401F01F06012707FAC8
:1022B00006F5012C01D10C3004E0022C01D11030C4
:1022C00000E014301AB107682F43076002E0076886
:1022D000AF430760F0BD00002DE9F04786B005462A
:1022E0000E460024A24600BFA1460027B08900B1D7
:1022F00000BF2F462C8A4CF6FF700440F088044340
:102300002C82AC894EF6F3100440B0883189084322
:10231000718908430443AC81AC8A4FF6FF40044006
:10232000B0890443AC8201A8FFF7B0FA1F48874286
:1023300002D1DDF810A001E0DDF80CA0A88900F4BE
:10234000004040B10AEBCA0000EB0A1031684900B6
:10235000B0FBF1F807E00AEBCA0000EB0A103168A5
:102360008900B0FBF1F86420B8FBF0F0040120090B
:10237000642101FB1089A88900F4004040B132209B
:1023800000EBC900B0FBF1F000F00700044308E0E7
:10239000322000EB09106421B0FBF1F000F00F00D7
:1023A00004432C8106B0BDE8F087000000380140EE
:1023B00001468888C0F308007047C1F30802828094
:1023C000704700BFFEE700000FB4054B10B503A92E
:1023D000044A029800F0DAF810BC5DF814FB000023
:1023E000932C00083000002002E008C8121F08C12A
:1023F000002AFAD170477047002001E001C1121F86
:10240000002AFBD1704700002DE9FF5F82B0002158
:10241000DDE90430020DDDF840B0034318D044F686
:102420001050A2F2FF3242431514119801281FD018
:10243000A5EB0B00401C5FEA000A4FF000064E4F70
:10244000DFF83891B046504615D5CAF1000413E0C4
:10245000119801244AA3012801D16FEA0B010298C7
:10246000119AC0E90031C0E9024206B0BDE8F09F10
:10247000CBF10000DFE704460021404A491842EB57
:102480000450CDE9001012E0E00707D032463B4689
:1024900040464946FDF7C6FE8046894632463B46E1
:1024A00010461946FDF7BEFE06460F466410002C86
:1024B000EAD1DDE90401DDE90023BAF1000F06DA13
:1024C000FDF7B0FE42464B46FDF7ACFE05E0FEF7D9
:1024D000EAF842464B46FEF7E6F804460E4600226E
:1024E000284BFEF767F903D84FF0FF30014607E0AD
:1024F0000022254B20463146FEF72EF8FEF742F922
:10250000102409E0002C0ADB0A220023FDF75FFFFC
:10251000039B30321A55641E50EA0102F2D1641C4A
:10252000039AC4F111031444119A012A03D0012221
:1025300008430DD10AE0084304D000204FF0110BEE
:10254000119072E7A3EB0B056D1E0DE05B4504DDFA
:102550004FF0000205F1010504E003DA4FF000023C
:10256000A5F10105002AECD002981199C0E90231C9
:10257000C0E9004579E70000000014400000F03F8A
:10258000300000000000F0430000E03F2DE9FF4F65
:1025900095B09A46884606460025EEE1252877D173
:1025A00000242746F94A0121039400E0044316F869
:1025B000013F203B01FA03F01042F7D130782A287E
:1025C00011D06FF02F033078A0F13002092A16D80D
:1025D000039A44F0020402EB820203EB420210442D
:1025E000761C0390EFE758F8042B0392002A03DAD5
:1025F000504244F40054039044F00204761C3078B6
:102600002E2816D116F8010F44F004042A280DD004
:102610006FF02F023078A0F13003092B09D807EBB7
:10262000870302EB4303C718761CF3E758F8047BD3
:10263000761C30786C280FD006DC4C2817D0682820
:102640000DD06A2814D104E0742810D07A280FD154
:102650000DE044F400140AE044F4801401E044F472
:1026600040147278824202D104F58014761C761CE4
:10267000307866280BD013DC582877D009DC002886
:1026800075D04528F6D04628F4D047281AD193E1D2
:1026900018E0632835D0642879D0652812D18BE101
:1026A000702873D008DC6728F1D069286FD06E28B5
:1026B0000DD06F2806D1ACE073282CD0752874D0CB
:1026C000782853D05246179990476D1C54E1C4F3B3
:1026D0000250022809D003280DD0D8F80010042891
:1026E0000DD00D6008F1040846E1D8F80010EA1793
:1026F000C1E90052F6E7D8F800100D80F2E70D703E
:10270000F0E718F8041B8DF8001000208DF8010088
:10271000EB46012003E058F804BB4FF0FF3061079F
:102720004FF0000102D40DE009F101018946B942E0
:102730000FDA8145F8DB1BF809100029F4D108E015
:1027400009F1010189468142FADB1BF809100029D1
:10275000F6D103985346A0EB090721463846179A4D
:1027600000F080FA284400EB090507E044E008E1A6
:102770000DE01BF8010B524617999047B9F101097A
:10278000F7D2534621463846179AF2E039E00A213B
:10279000C4F302524FF0000B0091022A06D058F801
:1027A000040BC117032A09D00AE023E008F107004F
:1027B00020F00702F2E80201904605E000B2C117DE
:1027C000042A01D140B2C117002906DA0A460021C5
:1027D000404261EB02012D2202E0220504D52B22AA
:1027E0008DF80420012203E0E20701D02022F7E760
:1027F000914657E00A2100E010214FF0000B0091B4
:102800000BE010214FF0000B44F004040827009166
:1028100003E008204FF0000B0090C4F30252022A9C
:1028200005D058F8040B0021032A08D008E008F16D
:10283000070020F00702F2E80201904603E080B2B0
:10284000042A00D1C0B24FF0000922072AD53278FD
:10285000702A07D0DDF800C08CF0100C5CEA0B0C7D
:1028600005D00EE040228DF80420012208E050EA55
:10287000010306D030238DF804308DF805200222A4
:102880009146009B83F0080353EA0B030AD150EAF8
:10289000010201D1620705D530228DF804204FF0E6
:1028A00001097F1E3278582A04D039A20C920CAA52
:1028B00002920BE03BA2F9E75B46009AFDF787FD29
:1028C0000C9B9B5C029A521E0292137050EA01020A
:1028D000F2D1029804A9081A00F1200B600702D572
:1028E00024F4803400E001275F4502DDA7EB0B00F4
:1028F00000E0002000EB0B01009003984944401ACF
:102900000390E00306D453462146179A039800F03B
:10291000A9F90544002706E001A85246C05D1799B1
:1029200090476D1C7F1C4F45F6DBE0030CD55346EA
:102930002146179A039800F095F9054404E03020E9
:102940005246179990476D1C0099481E0090002927
:10295000F5DC08E00298029952460078491C029181
:10296000179990476D1CBBF10001ABF1010BF1DC35
:102970005BE100F065F90544761C307800287FF4AF
:102980000DAE19B02846BDE8F08F000009280100FF
:1029900030313233343536373839616263646566D5
:1029A0000000000030313233343536373839414297
:1029B0004344454600000000600700D4062708F1A4
:1029C000070020F00700F0E80223804603F0004CE7
:1029D0005FEA0C0001D097A009E0200501D596A080
:1029E00005E0E00701D095A001E0AFF24C001390A4
:1029F000307823F0004365280CD006DC452809D048
:102A000046281DD047287FD13BE0662818D067288C
:102A10007AD136E00021112F01DB112000E0781C73
:102A2000CDE9000104A90CA8FFF7EEFCDDE90D01DA
:102A30000C9A4FF0000B07F10109109200914EE043
:102A40004FF000400097CDE9011004A90CA8FFF752
:102A5000DBFCDDE90D020C9B0F994FF0000B91465A
:102A60001093009211B9791C00EB0109B7EB090032
:102A700003D4C0F1FF3B07F10109A9EB0700019066
:102A800042E0012F00DA01270021112F01DD112082
:102A900000E03846CDE9000104A90CA8FFF7B4FC1A
:102AA000DDE90D010C9A00914FF0000BB946109230
:102AB00021070FD4009A4A4503DA914601E0A9F1B3
:102AC0000109B9F1010F05DD109AA9F10101515C6D
:102AD0003029F4D0B84202DA10F1040F03DA0121F0
:102AE000CDE9011010E0002803DC8344A9EB0001CC
:102AF00002E0411C494500DD8946A0EB0B00401C6B
:102B000001904FF000400290200705D401984845FD
:102B100002DB4FF0FF30019000208DF84B0002984F
:102B20000DF14B07B0F1004F25D002200C902B2067
:102B30000D90029800280CDA404202902D200D9052
:102B400007E00A210298FDF72CFC3031029007F8CB
:102B5000011D0C99481E0C900029F2DC02980028F7
:102B6000EFD1791E0D980870307800F0200040F009
:102B7000450007F8020D11A8C01BC01D0290139854
:102B8000007800B1012000EB0901019801EBE07130
:102B9000029801440398401A401E0390E00306D4B3
:102BA00053462146179A039800F05CF805441398A1
:102BB000007818B15246179990476D1CE00323D551
:102BC00053462146179A039800F04CF805441BE041
:102BD000BBF1000F07DB0098584504DD10981799EA
:102BE00010F80B0001E017993020524690470198E9
:102BF0000BF1010B401E05F10105019004D12E20BF
:102C00005246179990476D1CB9F10001A9F10109CD
:102C1000DEDC05E017F8010B5246179990476D1C52
:102C20000299481E02900029F4DC53462146179A67
:102C300003989EE62D0000002B00000020000000FD
:102C40002DE9F041044600251E461746880404D4A9
:102C500005E039462020B0476D1C641EF9D5284692
:102C6000BDE8F0812DE9F041044600251E4690465E
:102C7000C80301D5302700E02027880404D505E0EB
:102C800041463846B0476D1C641EF9D52846BDE85C
:102C9000F08170B504460D46E0B2FEF7CDFE204649
:102CA00070BD00008CB0FEF74DFFFEF769FEFEF729
:102CB00073FDFDF7B3FEFEF7BDF8FE480890002057
:102CC0008DF82C004FF48060ADF828004000ADF87E
:102CD0002A000820099008A8FEF704F908A8079020
:102CE00000208DF8080002A8FEF79EFB5622102156
:102CF0000120FEF7E7FC30220F210120FEF7E2FC65
:102D00002E220E210120FEF7DDFC30220D210120B4
:102D1000FEF7D8FC7A220B210120FEF7D3FC4822D3
:102D20000A210120FEF7CEFC302209210120FEF706
:102D3000C9FC302208210120FEF7C4FC3022072103
:102D40000120FEF7BFFC302206210120FEF7BAFC6D
:102D5000252204210120FEF7B5FC302203210120A9
:102D6000FEF7B0FC302202210120FEF7ABFC20224E
:102D700001210846FEF7A6FC6CE2FDF7A1FEFDF777
:102D80003BFECD49088008460088FDF7BDFA0546A0
:102D9000CA49FDF709FA0446C949FDF7D3F9C949FB
:102DA000086008460068FDF7B4FAC7490968884218
:102DB00012D0C4480068FDF7ACFAC0F13C00C4B2C0
:102DC00001200090C0480068C0F13C00C1B2234619
:102DD0007E221046FEF794FABA480068FDF799FA89
:102DE000B9490860B7480068FDF793FAC0F13C00A4
:102DF000C4B2012221467F20FEF7D8FAB24800680B
:102E00000A2190FBF1F03030C4B222460D2101209E
:102E1000FEF758FCAC4800680A2190FBF1F201FB78
:102E200012003030C4B222460F210120FEF74AFCC6
:102E3000FDF7F4FFA5490860084600680A2190FBE9
:102E4000F1F201FB12003030C4B222460921012008
:102E5000FEF738FC9D4800680A2190FBF1F090FBDA
:102E6000F1F201FB12003030C4B2224608210120E9
:102E7000FEF728FC95480068642190FBF1F00A21D8
:102E800090FBF1F201FB12003030C4B22246072160
:102E90000120FEF717FC8D4800684FF47A7190FB13
:102EA000F1F03030C4B2224606210120FEF70AFCC0
:102EB000FDF7A2FF86490860084600680A2190FBDA
:102EC000F1F201FB12003030C4B22246032101208E
:102ED000FEF7F8FB7E4800680A2190FBF1F090FBBA
:102EE000F1F201FB12003030C4B22246022101206F
:102EF000FEF7E8FB76480068642190FBF1F028B902
:102F0000202201210846FEF7DDFB0BE07048006837
:102F1000642190FBF1F03030C4B222460121084612
:102F2000FEF7D0FB02A8FEF7CDF96A480078012829
:102F30007DD169A16A48FDF7F7F830B901206949E8
:102F4000087069A0FFF740FA82E06BA16448FDF7C2
:102F5000EBF830B90020634908706AA0FFF734FA33
:102F600076E06CA15E48FDF7DFF830B901206B49CF
:102F700008706BA0FFF728FA6AE06CA15848FDF7CB
:102F8000D3F830B90020654908706AA0FFF71CFA31
:102F90005EE06CA15248FDF7C7F830B901206B49DB
:102FA00008706BA0FFF710FA52E06DA14C48FDF7D6
:102FB000BBF830B90020654908706BA0FFF704FA30
:102FC00046E06DA14648FDF7AFF800283DD16CA062
:102FD000FFF7FAF900203F49087034E03D480078D7
:102FE000012830D13E488078302804D16421080778
:102FF000FFF72CF820E03A48407840B9384800788C
:10300000303881B24FF08040FFF720F814E03448A8
:1030100042780078303800EB800002EB4000303816
:1030200000EB80004FF6FF7202EA400100E012E080
:103030004FF08040FFF70AF859A0FFF7C5F90020CC
:103040002449087000E0C9E702E059A0FFF7BCF985
:103050000020204908702348007801280AD1FDF794
:10306000CBFE0446FDF7DAFE05462246294655A06A
:10307000FFF7AAF929480078012819D1FDF7BCFC0F
:103080000D49088008460088FDF73EF981460B4946
:10309000FDF78AF80446FDF755F907464FF066320A
:1030A0004C4BFDF7BFF80546FDF75FF9054993E086
:1030B0009DE00000000C01401A00002000F07F4558
:1030C00000000442280000201C00002020000020F6
:1030D000240000202C00002050574D495F4F4E0027
:1030E000340000201600002050574D495F4F4E5FBE
:1030F0004F4B210D0A00000050574D495F4F464687
:103100000000000050574D495F4F46465F4F4B212E
:103110000D0A000041445F4F4E00000018000020DF
:1031200041445F4F4E5F4F4B210D0A0041445F4FBA
:103130004646000041445F4F46465F4F4B210D0A13
:103140000000000050574D5F4F4E00001700002058
:1031500050574D5F4F4E5F4F4B210D0A000000004E
:1031600050574D5F4F46460050574D5F4F46465FA4
:103170004F4B210D0A00000053455444555459004B
:10318000506C6561736520696E7075742073657429
:1031900074696E672076616C75653A0D0A000000EF
:1031A000534554445554595F4F4B210D0A000000BC
:1031B0004552524F525F434F4D4D454E44210D0AEB
:1031C000000000002564487A202564252544757494
:1031D000790D0A0066660A40086008460068FDF737
:1031E000B1F8044622460B461BA0FFF7EDF81E4837
:1031F000007801282ED100201C4908700DE01B48E2
:1032000001784FF08040FEF721FF1948FDF783FC5D
:1032100016480078401C1549087014480078642846
:10322000EDDD00201149087010E010480078C0F171
:10323000640081B24FF08040FEF708FF0C48FDF7B4
:103240006AFC0A480078401C084908700748007862
:103250006428EADD91E50000566F6C746167653A99
:103260002566560D0A0000001700002014000020FB
:10327000A086010000000000000000000000000027
:1032800000000000000000F8000000000000003313
:103290003000000000100C06100C060000000000BA
:1032A0000000000040C07840C0784000043F0404A3
:1032B0003F040400007088FC08300000001820FF64
:1032C000211E0000F008F000E018000000211C039F
:1032D0001E211E0000F00888700000001E2123241B
:1032E0001927211010160E00000000000000000039
:1032F00000000000000000E01804020000000007C9
:103300001820400000020418E000000000402018CF
:1033100007000000404080F0804040000202010FA2
:1033200001020200000000F0000000000101011F86
:1033300001010100000000000000000080B07000EA
:10334000000000000000000000000000000101017A
:103350000101010100000000000000000030300009
:1033600000000000000000008060180400601806E3
:103370000100000000E010080810E000000F10201D
:1033800020100F00001010F8000000000020203F67
:1033900020200000007008080888700000302824F1
:1033A0002221300000300888884830000018202092
:1033B00020110E000000C02010F8000000070424B7
:1033C000243F240000F808888808080000192120FC
:1033D00020110E0000E0108888180000000F112056
:1033E00020110E0000380808C83808000000003F0F
:1033F000000000000070880808887000001C22216E
:1034000021221C0000E010080810E000000031221A
:1034100022110F00000000C0C000000000000030BA
:10342000300000000000008000000000000080600C
:10343000000000000000804020100800000102048D
:103440000810200040404040404040000404040474
:103450000404040000081020408000000020100830
:1034600004020100007048080808F0000000003065
:1034700036010000C030C828E810E00007182724F3
:1034800023140B000000C038E0000000203C2302A1
:103490000227382008F8888888700000203F202004
:1034A00020110E00C0300808080838000718202036
:1034B0002010080008F808080810E000203F20202D
:1034C00020100F0008F88888E8081000203F20200E
:1034D0002320180008F88888E8081000203F200002
:1034E00003000000C030080808380000071820203A
:1034F000221E020008F808000008F808203F2101F9
:1035000001213F20000808F8080800000020203FA3
:103510002020000000000808F8080800C080808013
:103520007F00000008F888C028180800203F20010C
:103530002638200008F8080000000000203F202066
:103540002020300008F8F800F8F80800203F003F7D
:10355000003F200008F830C00008F808203F200095
:1035600007183F00E01008080810E0000F102020A6
:1035700020100F0008F808080808F000203F21017B
:1035800001010000E01008080810E0000F182424D2
:1035900038504F0008F8888888887000203F200045
:1035A000030C3020007088080808380000382021FB
:1035B00021221C00180808F8080818000000203F05
:1035C0002000000008F808000008F808001F20206C
:1035D00020201F000878880000C83808000007383D
:1035E0000E010000F80800F80008F800033C07008E
:1035F000073C0300081868808068180820302C03F6
:10360000032C30200838C800C83808000000203FCC
:103610002000000010080808C838080020382621BB
:1036200020201800000000FE020202000000007FBF
:1036300040404000000C30C00000000000000001CD
:103640000638C00000020202FE00000000404040B8
:103650007F000000000004020202040000000000DD
:10366000000000000000000000000000808080805A
:103670008080808000020204000000000000000042
:1036800000000000000080808080000000192422DB
:1036900022223F2008F8008080000000003F112017
:1036A00020110E000000008080800000000E11201C
:1036B00020201100000000808088F800000E1120FA
:1036C00020103F200000808080800000001F222208
:1036D00022221300008080F0888888180020203F74
:1036E000202000000000808080808000006B949487
:1036F0009493600008F8008080800000203F210043
:1037000000203F2000809898000000000020203F0B
:1037100020200000000000809898000000C08080F9
:10372000807F000008F8000080808000203F240295
:103730002D302000000808F8000000000020203F85
:10374000202000008080808080808000203F20003A
:103750003F20003F8080008080800000203F2100CB
:1037600000203F200000808080800000001F20207B
:1037700020201F00808000808000000080FFA120AA
:1037800020110E000000008080808000000E1120BB
:1037900020A0FF80808080008080800020203F214A
:1037A00020000100000080808080800000332424FD
:1037B00024241900008080E0808000000000001FA9
:1037C000202000008080000000808000001F20205A
:1037D00020103F20808080000080808000010E301B
:1037E0000806010080800080008080800F300C037C
:1037F0000C300F0000808000808080000020312E7F
:103800000E312000808080000080808080818E705A
:103810001806010000808080808080000021302C0C
:103820002221300000000000807C02020000000025
:10383000003F404000000000FF00000000000000CA
:10384000FF0000000002027C800000000040403FBA
:103850000000000000060101020204040000000054
:103860000000000084380008000000203400000040
:10387000E8230008B838000834000020640800007D
:10388000F823000800000000010203040102030401
:1038900006070809020406080000000000000000F6
:1038A0000000000000000000000000000000000018
:0838B000000000000000000010
:04000005080000ED02
:00000001FF
